:020000040800F2
:1000000000000220A1200008692000086D200008DF
:100010007120000875200008792000080000000009
:100020000000000000000000000000007D2000082B
:1000300081200008000000008520000889200008B9
:10004000F1200008F1200008F1200008F12000084C
:10005000F1200008F1200008F1200008F12000083C
:10006000F1200008F1200008F1200008F12000082C
:10007000F1200008F1200008F1200008F12000081C
:10008000F1200008F1200008F1200008F12000080C
:10009000F1200008F1200008F1200008F1200008FC
:1000A000F1200008F1200008F1200008F1200008EC
:1000B000F1200008F1200008F1200008F1200008DC
:1000C000F1200008F1200008F1200008F1200008CC
:1000D000F1200008F1200008F1200008F1200008BC
:1000E000F1200008F1200008F1200008F1200008AC
:1000F000F1200008F1200008F1200008F12000089C
:10010000F1200008F1200008F1200008F12000088B
:10011000F1200008F1200008F1200008F12000087B
:10012000F1200008F1200008F1200008F12000086B
:10013000F1200008F1200008F1200008F12000085B
:10014000F1200008F1200008F1200008F12000084B
:10015000F1200008F1200008F1200008F12000083B
:10016000F1200008F1200008F1200008F12000082B
:10017000F1200008F1200008F12000080000000034
:08018000F1200008F120000845
:1001880010B5054C237833B9044B13B10448AFF3C9
:1001980000800123237010BD0C0000200000000027
:1001A8007038000808B5034B1BB103490348AFF387
:1001B800008008BD00000000100000207038000812
:1001C80053B94AB9002908BF00281CBF4FF0FF31B6
:1001D8004FF0FF3000F070B9ADF1080C6DE904CEB6
:1001E80000F006F8DDF804E0DDE9022304B070470A
:1001F8002DE9F047089E0D4604460F46002B4AD1CC
:100208008A42944665D9B2FA82F343B102FA03FCF2
:10021800C3F120029F4020FA02F217439C404FEAA4
:100228001C4E1FFA8CF5B7FBFEF1220C0EFB117762
:1002380042EA074201FB05F090420AD91CEB020290
:1002480001F1FF3780F01C81904240F21981023998
:100258006244121AA4B2B2FBFEF00EFB102244EA6A
:10026800024400FB05F5A5420AD91CEB040400F181
:10027800FF3280F00781A54240F2048164440238CD
:1002880040EA0140641B00211EB1DC400023C6E99E
:100298000043BDE8F0878B4208D9002E00F0ED80BE
:1002A8000021C6E900050846BDE8F087B3FA83F1E6
:1002B800002949D1AB4202D3824200F2F880841A65
:1002C80065EB030201201746002EE2D0C6E900477D
:1002D800DFE702B9FFDEB2FA82F3002B40F090802C
:1002E8008A1A4FEA1C471FFA8CFE0121B2FBF7F568
:1002F80007FB1520220C42EA00420EFB05F0904253
:1003080008D91CEB020205F1FF3802D2904200F234
:10031800CB804546121AA4B2B2FBF7F007FB1022B5
:1003280044EA02440EFB00FEA64508D91CEB04046F
:1003380000F1FF3202D2A64500F2BB801046A4EBC2
:100348000E0440EA05409FE7C1F120078B4022FADE
:1003580007FC4CEA030C05FA01F420FA07F3FD4008
:100368004FEA1C492343B5FBF9F81FFA8CFE09FB39
:1003780018551C0C44EA054408FB0EF5A54202FA80
:1003880001F200FA01F00BD91CEB040408F1FF3A62
:1003980080F08880A54240F28580A8F10208644474
:1003A800641B9DB2B4FBF9F309FB134445EA04440A
:1003B80003FB0EFEA64508D91CEB040403F1FF3528
:1003C8006CD2A6456AD9023B644443EA0843A3FBBE
:1003D8000295A4EB0E04AC42C846AE4656D353D0A1
:1003E80056B1B0EB080264EB0E0404FA07F7CA40F2
:1003F800CC401743C6E9007418460021BDE8F087D1
:10040800C3F1200102FA03FC20FA01F225FA01F1F6
:100418009D402A434FEA1C471FFA8CFEB1FBF7F0B8
:1004280007FB1015110C41EA054100FB0EF58D4242
:1004380004FA03F408D91CEB010100F1FF382FD2AC
:100448008D422DD902386144491B92B2B1FBF7F5B0
:1004580007FB151142EA014205FB0EF1914208D94A
:100468001CEB020205F1FF3816D2914214D9023D65
:100478006244521A45EA004138E73146304608E7F7
:100488003946E6E61046FBE64845A9D2B9EB02082C
:1004980065EB0C0E013BA3E74546EAE72B4694E7DC
:1004A8004046D1E7D0467BE7023D624432E7084642
:1004B8000AE76444023842E7704700BF00000000C2
:1004C80010B5002394B0CDE90A33CDE90333CDE963
:1004D8000533254901930C9309930D930793086CF1
:1004E800224A40F080500864096C01F08051019163
:1004F80001990293116841F48041116012680F93C9
:1005080002F4804210239FED167B062002920C9382
:1005180008224023CDE91023022408900222042354
:1005280008A88DED0A7BCDE9122302990E9401F0FB
:10053800DDFF08B172B6FEE70F210346CDE90314CB
:100548004FF4805203A82146CDE90532079302F003
:10055800E5F908B172B6FEE714B010BDAFF300803C
:100568000100000001000000003802400070004057
:100578002DE9F04F002491B001F0DCFDFFF7A0FF5A
:10058800CDE90944CDE90B44734B05940D94196BDF
:10059800724841F004011963196B01F004010591D7
:1005A80005990694196B012211431963196B1140BF
:1005B800069106990794196B41F010011963196B9C
:1005C80001F01001079107990894196B41F008018F
:1005D80019631B6B03F008030893C021089B0125CE
:1005E80001F072FFC0235D4809A9CDE90935CDE9BD
:1005F8000B4401F047FE5A480F944FF02043036024
:1006080003F5827343601023C0E904434FF4805319
:100618008362052309930223CDE90C530A930E93B1
:1006280022460A2309A9C0E90244C0E90644C0E9F0
:100638000844C0E90B44C0E90D4444640B9303F03B
:100648004BF808B172B6FEE7464C474A22607F2253
:100658000346C4E90102CDE90900CDE90B000D907C
:100668000490FF222046C4E90433E260A36102F04B
:1006780093FA064608B172B6FEE701F029FF314643
:10068800204603F001F84AF2A55398420FD02A46B3
:1006980009A92046CDE90C66ADF824608DF82660DE
:1006A80002F0F0FA002800F0B78272B6FEE72B4D90
:1006B800052400224021284601F006FF642001F0AD
:1006C80065FD28460122402101F0FEFE642001F06C
:1006D8005DFD013CEDD1642001F058FD00F0B4FA55
:1006E800642001F053FD1D4C00224021204601F0FA
:1006F800EBFE4FF4967001F049FD0122402120469F
:1007080001F0E2FE4FF4967001F040FD4FF4FA70EC
:1007180001F03CFD4FF4784000F056FB4FF47A703E
:1007280001F034FD4FF4FC6000F04EFB4FF47A709A
:1007380001F02CFD1F2000F047FB4FF47A7001F008
:1007480025FD4FF6FF7000F03FFB4FF47A7001F083
:100758001DFD02250BE000BF0038024000000240EA
:100768004800002028000020002800400125002221
:100778004021204601F0A8FE4FF4967001F006FDD6
:1007880020460122402101F09FFE4FF4967001F0AF
:10079800FDFC012DEAD14FF4FA7001F0F7FC0020BE
:1007A80000F012FB4FF6FF75002108464FF4F07376
:1007B80040F21F32009500F06FFC40F6B83001F0AF
:1007C800E5FC032500224021204601F07DFE4FF480
:1007D800967001F0DBFC01224021204601F074FEF6
:1007E800013D4FF4967001F0D1FC15F0FF05E9D1F9
:1007F8004FF4FA7001F0CAFC4FF47846284600F02E
:10080800E3FA294628464FF4F07340F21F32009667
:1008180000F042FC4FF4FC65322108464FF4BE73E9
:100828004FF42F72009500F037FC1F25642108460D
:100838004FF48C734FF41672009500F02DFC40F6BF
:10084800B83001F0A3FC042500224021204601F025
:100858003BFE4FF4967001F099FC0122402120469E
:1008680001F032FE013D4FF4967001F08FFC15F057
:10087800FF05E9D14FF4FA7001F088FC284600F032
:10088800A3FA4FF47845322108469623C8220095EA
:1008980000F00EFD4FF4FC65C8231A4696214FF46C
:1008A800967000951F2500F003FD4FF49673C8223B
:1008B800642140F22620009500F0FAFC40F6B8309A
:1008C80001F064FC052500224021204601F0FCFDD2
:1008D8004FF4967001F05AFC01224021204601F0A5
:1008E800F3FD013D4FF4967001F050FC15F0FF0543
:1008F800E9D14FF4FA7001F049FC4FF6FF7628462B
:1009080000F062FA28460A234FF44872EB21009659
:1009180000F0CEFC29464FF4F0730A2240F28B1007
:10092800009600F0C5FC40F6B83001F02FFC062513
:1009380000224021204601F0C7FD4FF4967001F0D7
:1009480025FC01224021204601F0BEFD013D4FF467
:10095800967001F01BFC15F0FF05E9D14FF4FA7011
:1009680001F014FC1F2000F02FFA1025A8B200F0A7
:10097800B3F9013D642001F009FC6B1CF6D1002598
:10098800A8B200F0A9F90135642001F0FFFB112D90
:10099800F6D14FF47A7001F0F9FB072500224021C7
:1009A800204601F091FD4FF4967001F0EFFB012213
:1009B8004021204601F088FD013D4FF4967001F07A
:1009C800E5FB15F0FF05E9D14FF4FA7001F0DEFB05
:1009D8004FF47847284600F0F7F92946284600974B
:1009E8007823642200F064FC4FF4FC6964222946F1
:1009F80010464FF01F0ACDF80090782300F058FCFD
:100A08002946CDF800A078236422C82000F050FCC5
:100A18004FF6E07340F2FF7829460093642278236A
:100A28004FF4967000F044FC4FF61F0B2946CDF8A2
:100A38000080782364224FF4C87000F039FC4FF628
:100A4800FF762946CDF800B0782364224FF4FA7077
:100A580000F02EFC29460096782364224FF4167085
:100A680000F026FC4CF21863294600936422782390
:100A78004FF42F7000F01CFC782348F210421946FE
:100A880000922846642200F013FC782364224FF475
:100A9800004100911046194600F00AFC78234FF4F3
:100AA800044219460092C820642200F001FC782311
:100AB8001946CDF8009064224FF4967000F0F8FBC8
:100AC80078231946CDF8008064224FF4C87000F0EE
:100AD800EFFB78234FF48262194600924FF4FA70C4
:100AE800642200F0E5FB78231022194600924FF4A7
:100AF8001670642200F0DCFB782348F210021946D5
:100B080000924FF42F70642200F0D2FB2846CDF8F3
:100B180000B078236422F02100F0CAFB64224FF66B
:100B28002051104678230091F02100F0C1FB41F2DA
:100B3800883001F02BFB00F075F932210846009748
:100B48009623C82200F0B4FB322108460096C8223A
:100B5800962300F0A1FA4B466422F0214FF4FA7074
:100B680000F05CFD33466422F0214FF4FA7000F087
:100B780015FC4FF0C8094FF416724B460092CDE9A8
:100B8800019A40F2EE22322140F28A2000F0D0FE93
:100B98004FF0140C64234FF6E071CDE900C14A46CA
:100BA80018464FF4967101F02DF8294640F21F328D
:100BB80040F2DF132846009600F060F940F6B8309E
:100BC80001F0E4FA284600F093F8012000F0A8F8B4
:100BD800404600F0F9F83B469622F0214FF4C870E1
:100BE80000F01CFD00F0B4F84FF47A7001F0CEFA72
:100BF800284600F07DF8284600F092F8012000F021
:100C0800D1F84FF4FA6001F0C1FA00F0D7F84FF4C8
:100C18007A7001F0BBFA67E5094B04932A4604A9E8
:100C2800204602F0BDFA08B172B6FEE74FF4002183
:100C3800204602F02FFD00283FF439AD72B6FEE7DA
:100C48000101010072B6FEE710B5052001F09EFA19
:100C58001E491F4A1F4C4FF0C04000230B7004214F
:100C6800018005211380237001800C2113800180ED
:100C78000D2113804FF00F0C018002211380A0F882
:100C880000C00180032113800180062113800180A8
:100C980040F2DF1111800721018040F21F311180DD
:100CA8004BF68031A0F800C00139138013801380FF
:100CB80013801380138013801380F5D14FF0C04147
:100CC800012010230880138010BD00BF9800002069
:100CD8000000086099000020102805D8034B4FF049
:100CE800C042012111801880704700BF00000860D1
:100CF800072810B488BF0023074C084A88BF184645
:100D08004FF0C041207098BF83B2042008805DF87E
:100D1800044B1380704700BF980000200000086053
:100D2800072810B488BF0023074C084A88BF184614
:100D38004FF0C041207098BF83B2052008805DF84D
:100D4800044B1380704700BF990000200000086022
:100D5800114912480A780378072A84BF4FF0000C1B
:100D68006246027098BF1FFA82FC4FF0C04204200E
:100D7800108002F50022072BA2F800C088BF0023CC
:100D8800074A0B704FF0C04C94BF98B21846052321
:100D9800ACF80030108070479900002098000020BF
:100DA800000008600038044B4FF0C04218BF012013
:100DB8000B21118018807047000008604FF0C04375
:100DC8000F221A80704700BF4FF0C042144B4FF0FB
:100DD800020CA2F800C000214FF0030C1980A2F801
:100DE80000C04FF0060C1980A2F800C0072140F29D
:100DF800DF1CA3F800C0118040F21F3C0F21A3F8AC
:100E080000C011804BF68032013A18801880188093
:100E180018801880188018801880F5D1704700BF96
:100E2800000008604FF0C041134B00224FF0020C45
:100E38000320A1F800C01A804FF0060C088040F289
:100E4800DF101A80A1F800C018804FF0070C40F29C
:100E58001F30A1F800C018800F2008804BF68031A1
:100E680001391A801A801A801A801A801A801A800A
:100E78001A80F5D1704700BF000008602DE9F04FD7
:100E880089B09942BDF848400793069400F08580E0
:100E9800904200F0C1800FDA131A1FFA83FB1BB2CD
:100EA8000293079B994210DA5B1A01249DB20394BE
:100EB80005951BB2A24614E0831A1FFA83FB1BB2E6
:100EC8000293079B9942C0F29D80079BCB1A9CB264
:100ED800904205941BB2C0F290804FF0FF34039407
:100EE800A2465B420193059B6A4F0491ABEB030E4C
:100EF8000FFA8EFE84B28DB24FF0C046B4F5487F2B
:100F080017D2B5F5F07F14D24FF0020333804FF0BB
:100F180003033D8033804FF006033C8033804FF05D
:100F280007033D8033804FF00F033C803380069BDE
:100F38003B80904205EB0A0828D0039B019904EBFB
:100F480003091FFA8EF34FEA430C0FFA8CFC8C4509
:100F58000ADD0599A3EB010E1FFA8EF30FFA89F04B
:100F68000FFA8EFE1FFA89F402998C455B44C5DAA4
:100F78000FFA83FEB4F5487F0FFA88F304931FFA3B
:100F880088F5BED3904205EB0A08D6D1079B049991
:100F98009942D2D109B0BDE8F08F904202DD0346F4
:100FA80010461A4680B2B0F5487FF3D289B2B1F53F
:100FB800F07FEFD292B2541C241AA4B2002CE9D0CC
:100FC8000319B3F5487F5EDC4FF0C043314D02266C
:100FD8001E80032629801E802880062018802980EC
:100FE800072119802A8006990F221A8000230133CD
:100FF8009AB2A2422980FAD3CCE7012403944FF095
:10100800FF3A6EE75B1A9CB205944FF0FF341BB2AF
:1010180003944FF0010A64E799421A4602DD0B4631
:101028000793114680B2B0F5487FB3D289B2B1F5C3
:10103800F07FAFD2BDF81C506A1C521A92B2002A37
:10104800A8D08B18B3F5F07F04DDC1F5F07292B229
:1010580040F2DF154FF0C0430E4C02261E8021805F
:1010680003211980062120801980072125801980F5
:1010780020800F21069819800023013399B28A42F3
:101088002080FAD886E7C0F54874A4B240F21F322F
:101098009AE700BF000008602DE9F047BDF820C0BE
:1010A800002A00F0D080002B00F0CD80B0F5487FFA
:1010B80080F0D880B1F5F07F80F0C7808718B7F549
:1010C800487F00F3E980461EB6B202EB060E1FFA0F
:1010D8008EFE90464FF0C044744D4FF00209A4F8BC
:1010E80000904FF003092980A4F800904FF00609FA
:1010F8002880A4F800904FF007092980A4F80090F0
:10110800A5F800E04FF00F0EA4F800E04FF0000E35
:101118000EF1010E1FFA8EF4A045A5F800C0F7D80D
:1011280001F1FF381FFA88F55C191FFA84F9B9F53F
:10113800F07F35D2B7F5487F00F3A88002EB060EA2
:101148001FFA8EFE17464FF0C044584D4FF0020A62
:10115800A4F800A04FF0030AA5F80090A4F800A096
:101168004FF0060A2880A4F800A04FF0070AA5F857
:101178000090A4F800A0A5F800E04FF00F0EA4F826
:1011880000E04FF0000E0EF1010E1FFA8EF4BC4283
:10119800A5F800C0F7D3B1F5F07F54D21FFA88F54F
:1011A8004FF0C04E414C4FF0020A01EB0308AEF875
:1011B80000A0B8F5F07F4FF0030A2180C8BF40F2C5
:1011C800DF19AEF800A04FF0060A2080AEF800A0A4
:1011D800A4F800904FF00709AEF80090C8BFC1F519
:1011E800F07720804FF00F00AEF80000CCBFBFB200
:1011F8001F46002001301FFA80FE7745A4F800C082
:10120800F8D8901980B2B0F5487F1CD2B8F5F07FB5
:1012180036DC1D44ADB24FF0C042244C0226168085
:10122800218003211180062120801180072125803B
:1012380011800F21208011800022013291B28B424F
:10124800A4F800C0F9D8BDE8F08701F1FF3803EB36
:1012580008041FFA84F9B9F5F07FF4D2461EB6B235
:10126800171867E70138104480B2B0F5487FEAD212
:10127800B1F5F07FE7D24D1E03EB0108ADB2C5E72B
:10128800C1F5F0739BB240F2DF15C4E7C0F54877AB
:10129800BFB240F21F3E56E7C0F54878461E1FFA17
:1012A80088F8B6B240F21F3E14E700BF000008609D
:1012B80070B5B0F5487FBDF810C060D2B1F5F07FC9
:1012C8005DD2002A5BD0002B59D08418B4F5487F32
:1012D8005CDC541E0444A4B2CD18B5F5F07F4FDC95
:1012E8005D1E0D44ADB24FF0C04E03FB02F22A4B17
:1012F8000226AEF8006019800321AEF8001006211E
:101308001880AEF8001007211D80D008AEF8001034
:101318000F211C8002F00702AEF80010411E90B1A8
:101328000139481CA3F800C0A3F800C0A3F800C006
:10133800A3F800C0A3F800C0A3F800C0A3F800C039
:10134800A3F800C0ECD1D2B1134B012AA3F800C016
:1013580015D0022AA3F800C011D0032AA3F800C0B0
:101368000DD0042AA3F800C009D0052AA3F800C0AC
:1013780005D0062AA3F800C018BFA3F800C070BDA6
:10138800C1F5F0739BB240F2DF15ACE7C0F54872C7
:1013980092B240F21F349FE7000008602DE9F04F39
:1013A80085B0002A0192C0F2348182B24FF0000960
:1013B80003921FFA81F8964694469749CDF8009013
:1013C80048464FF0C0424FF0020A4FF00F0B1F463D
:1013D80017E0013B9CB2A0EB440001381BB201931B
:1013E80000B2009B019C013300931BB20CF1010C6D
:1013F8000EF1FF3EA3421FFA8CFC1FFA8EFE00F38B
:101408000881BDF80430039CBDF8005002951C19F2
:10141800A4B24544B4F5487FADB214D2B5F5F07F17
:1014280011D24FF00306A2F800A00D8016804FF0ED
:1014380006060C8016804FF007060D8016800C807B
:10144800A2F800B00F8003EB0806BCF5487FB6B2DF
:1014580080F0D680B6F5F07F2FD24FF00309A2F8BE
:1014680000A00E80A2F800904FF00609A1F800C075
:10147800BEF5487FA2F800904FF007090E80A2F849
:101488000090A1F800C0A2F800B00F8015D24FF06C
:101498000309A2F800A00E80A2F800904FF00609F8
:1014A800A1F800E0A2F800900E804FF00706168021
:1014B800A1F800E0A2F800B00F80039EF61AB6B2B9
:1014C800B6F5487F80F09780B5F5F07F13D24FF0DE
:1014D8000309A2F800A00D80A2F800904FF00609B9
:1014E8000E80A2F800900D804FF0070515800E8041
:1014F800A2F800B00F80029DA8EB0505ADB2B5F5C6
:10150800F07F14D24FF00309A2F800A00D80A2F8D2
:1015180000904FF006090E80A2F800904FF00709DE
:101528000D80A2F800900E80A2F800B00F80A8EB02
:101538000306BEF5487FB6B256D2B6F5F07F2FD275
:101548004FF00309A2F800A00E80A2F800904FF017
:101558000609A1F800E0BCF5487FA2F800904FF01A
:1015680007090E80A2F80090A1F800E0A2F800B0E8
:101578000F8015D24FF00309A2F800A00E80A2F840
:1015880000904FF00609A1F800C0A2F800900E8064
:101598004FF007061680A1F800C0A2F800B00F802F
:1015A800B4F5487F14D2B5F5F07F11D24FF0030699
:1015B800A2F800A00D8016804FF006060C80168059
:1015C8000D804FF0070515800C80A2F800B00F8041
:1015D80000283FF7FEAE029C033000EB440000B247
:1015E80000287FF7FEAEF4E6BCF5487FD8D2B6F502
:1015F800F07FBFD3D4E7029DA8EB0505ADB296E70F
:10160800BEF5487FBFF459AFB6F5F07FFFF43FAFA2
:1016180053E705B0BDE8F08F000008602DE9F04FF2
:1016280089B080B2019292B289B25500B0F5487F74
:1016380003900291ADB22DD20E46891A89B2B1F546
:10164800F07F27D26C1CA4B20819B0F5F07F03DD37
:1016580002F5F074A41BA4B24FF0C047B34E4FF08C
:10166800020CA7F800C0481E318003213980039975
:10167800318020440621398080B2072130803980AA
:10168800039931800F2139800021013188B28442C9
:101698003380FAD86D4229B204910199C2F101024E
:1016A800002912B240F338810399029C0593601E09
:1016B8004F1E4E1CC4F5F0749C49079480B2BFB20B
:1016C800B6B203254FF0C04B002AC0F22881049C13
:1016D800019B023403F1FF3C23B212FA84F2049313
:1016E8000FFA8CF392B21FFA8CF40193029B4FEA23
:1016F800440C2A440CF1010CA3EB040EB6F5487F08
:1017080012B21FFA8CFC1FFA8EFE39D2BEF5F07F9A
:1017180036D20EEB0C08B8F5F07FC4BF079B04EB7C
:10172800030A4FF00203ABF80030C8BF1FFA8AFA69
:101738004FF00303D8BFE2460EF1FF38A1F800E0EE
:10174800D044ABF800304FF006030E801FFA88F83B
:10175800ABF800304FF00703A1F80080ABF8003079
:101768004FF00F030E80ABF80030059B4FF00008D8
:1017780008F101081FFA88F9CA450B80F8D80593C3
:10178800039B03EB04081FFA88F8B8F5487F80F03C
:10179800CA80B0F5F07F80F0C68000EB0509B9F586
:1017A800F07FC2BFC0F5F0791FFA89F39A464FF06F
:1017B8000203ABF800304FF003030880D8BFAA46F5
:1017C800ABF8003000F1FF394FF00603A1F80080B4
:1017D800ABF800305346CA441FFA8AFAA1F800A0B1
:1017E8004FF0070AABF800A0A1F800809A464FF026
:1017F8000F08059BABF800804FF00008069408F12D
:1018080001081FFA88F4A2450B80F8D8069C0593B6
:10181800B7F5487F36D2BEF5F07F33D20EEB0C0811
:10182800B8F5F07F04DD079B04EB030C1FFA8CFC72
:101838004FF00203ABF80030A1F800E04FF00303CB
:101848000EF1FF3EABF80030E6444FF006030F8080
:101858001FFA8EFEABF800304FF00703A1F800E046
:10186800ABF800304FF00F030F80ABF80030059B4A
:101878004FF0000E0EF1010E1FFA8EF8C4450B80D2
:10188800F8D80593039B1C1BA4B2B4F5487F34D247
:10189800B0F5F07F31D200EB050CBCF5F07FC8BF86
:1018A800C0F5F07C4FF00203ABF80030C8BF1FFA58
:1018B8008CFC4FF00303D8BFAC4608800CEB090E34
:1018C800ABF800304FF006030C801FFA8EFEABF821
:1018D80000304FF00703A1F800E0ABF800304FF0FC
:1018E8000F030C80ABF80030059B002401341FFA6D
:1018F80084FEE6450B80F9D30593029B1C1A019BD5
:1019080024B20235013F0136A342ADB21FFA89F075
:10191800BFB2B6B23FF7D8AE09B0BDE8F08FBDF898
:10192800044092B2E2E600F1FF3971E70000086076
:101938002DE9F04F89B01E46BDF94C500693B142CF
:10194800BDF94830BDF85040009540F3FF80A942EA
:101958000ADD069D009FAF420E460546C0F208818B
:101968001846394600962B460E46054606990696B1
:1019780010462A46009DA94200F0FF80DDF818E0D5
:10198800DDF800C097B280B23E1A1FFA8EF99AB2FB
:101998008DB21FFA8CF336B20496A9EB05065D1BCF
:1019A800A3EB0903E6451BB2A2EB0008A2EB070272
:1019B80018BF09F1FF39059313B20293734614BF98
:1019C8000FFA89F3734636B28B420397B3460FFA80
:1019D80085FA0FFA88F80193C0F20A810026884D2B
:1019E80007910B4637464FF0C049DE46049A97FBED
:1019F800FEFC1744844496FBFAF202440FFA8CFB6F
:101A080011B28B4546441FFA8CFC92B202DC114697
:101A180062468C46B2F5487F9BB231D2B3F5F07F6F
:101A28002ED20CF10101891A89B249B302EB010BDC
:101A3800BBF5487F04DDC2F5487189B240F21F3C0E
:101A48004FF0020BA9F800B04FF0030B2B80A9F858
:101A580000B02A804FF00602A9F800204FF00702D4
:101A68002B80A9F800204FF00F02A5F800C0A9F8B4
:101A78000020002201321FFA82FC61452C80F9D82F
:101A8800019A01331BB29A42B0DA0799069AA3EB7E
:101A9800020C029A02FB0CFC009A591A9A4208FBA3
:101AA80001F150DB564F4FF0C04E4FF00F0B1D4663
:101AB800059B9CFBF3F6039B91FBFAF21E44029BE9
:101AC80002440FFA86F99C4413B299454144B6B2D0
:101AD80092B202DC134632461E46B2F5487FADB2DA
:101AE8002CD2B5F5F07F29D2731C9B1A9BB22BB36D
:101AF80002EB0309B9F5487F04DDC2F548739BB2D0
:101B080040F21F364FF00209AEF800904FF003097B
:101B18003D80AEF800903A804FF00602AEF8002003
:101B28004FF007023D80AEF800203E800022AEF85C
:101B380000B0013296B29E423C80FAD3009B013538
:101B48002DB29D42B4DD09B0BDE8F08F3546009E48
:101B5800B5427FF70FAF0E46054606990696104622
:101B6800009F2A46069DAF420E460546BFF6F8AED0
:101B78000099009618462B4600E7904202DD05467C
:101B880010462A46984229DD9BB2B3F5487FDAD23F
:101B980089B2B1F5F07FD6D292B2501CC01A80B289
:101BA8000028D0D01D18B5F5487F23DC4FF0C0467B
:101BB800134D022737800327298037802B8006237F
:101BC80033800723298033800F232A803380002322
:101BD80001339AB290422C80FAD8B4E79A42B8BF3F
:101BE8001A4603469BB2B3F5487F12B2D0D3AAE790
:101BF8000B464BE7C3F5487080B240F21F32D5E779
:101C0800000008602DE9F04F8FB08246BDF86440AF
:101C1800BDF860000AB11E4613B90FB0BDE8F08FD9
:101C28005D08854228BF054617465208954228BFD9
:101C3800154605EB0A024FEA45081FFA88F892B2E2
:101C48000AF1FF3A894610460592013EA7EB0802C1
:101C5800574492B27F1BA6EB08060094A944C8F12A
:101C68000008FFF725FBB8B20FFA88F11FFA89F7C9
:101C7800C5F101020697B6B2049112B20FFA85FABD
:101C8800002DCAD07B1E9BB20993F31C01369DB26E
:101C9800B3B2CDE907030A910130C7F5F077DFF851
:101CA800D082099EDDF828C00395CDE90B2AD646D7
:101CB80080B2DDF81CA00D97134600210794002B75
:101CC800C0F247810CF1020C0EF1FF3E13FA8CF3BF
:101CD8001FFA8EF20FFA8CFC9BB20FFA8EFE0131BE
:101CE8008FB203EB47030133B0F5487F09B21BB24B
:101CF8003CD2069FBF1ABFB2B7F5F07F36D2089C18
:101D080004EB42091FFA89F9B9F1000F2ED007EB4D
:101D1800090BBBF5F07F00F324814FF0C0444FF06E
:101D2800020BA4F800B0A8F80070013F4FF0030BB5
:101D38004F44A4F800B0BFB24FF0060BA8F800005B
:101D4800A4F800B0A8F800704FF0070727804FF0FC
:101D58000F07A8F800002780079C002701371FFA03
:101D680087FBCB45A8F80040F8D30794524492B2B9
:101D7800B2F5487F80F0EB80B6F5F07F80F0E78021
:101D8800002D00F0E48077194FF0C044B7F5F07FDC
:101D98004FF00209A4F80090C8BFC6F5F0774FF0DD
:101DA8000309A8F80060C8BFBFB2A4F80090D8BF64
:101DB8002F464FF00609013EA8F80020A4F800902D
:101DC80007EB06091FFA89F9A8F800904FF00709F0
:101DD800A4F80090A8F800204FF00F022280079C7A
:101DE800002201321FFA82F9B945A8F80040F8D359
:101DF8000794023501307145B6B2ADB280B2FFF634
:101E08005EAFDDE90B2A059B0698594E099C591EC1
:101E1800C0F5F070002A89B24FF000034FF0C04CB3
:101E28004FF002084FF003094FF0070B0A90C0F279
:101E38008880049802300AF1FF3A12FA80F200B260
:101E4800049092B21FFA8AF00FFA8AFA01339DB20F
:101E580002EB45020132B1F5487F1BB212B22FD214
:101E6800069D2D1AADB2B5F5F07F29D2089F07EB74
:101E78004007BFB227B305EB070EBEF5F07F6CDC59
:101E8800ACF800803580013D3D44ADB24FF0060E00
:101E9800ACF800903180ACF800E03580DDF81CE04B
:101EA800ACF800B04FF00F053180ACF800500025B9
:101EB80009900135A8B28742A6F800E0F9D8099838
:101EC800059D281A80B2B0F5487F3ED2B4F5F07F60
:101ED8003BD2039D002D38D06519B5F5F07FD8BFEA
:101EE800039DACF80080C8BFC4F5F07534804FF08E
:101EF8000607C8BFADB2013CACF800903080ACF822
:101F080000702F19BFB23780DDF81CE0ACF800B0C4
:101F180030804FF00F00ACF800000020013087B28D
:101F2800AF42A6F800E0F9D303980230013980B235
:101F38009A45A4B2039089B27FF76FAE002ABFF624
:101F480078AF92B21FFA8AF080E7013CECE7013ED5
:101F58004FE79BB21FFA8EF2C1E60A9FC719BFB2BC
:101F68008EE70D9C02EB04091FFA89F9D5E600BF3C
:101F78000000086082B00C4B002100915A6C42F4BA
:101F880080425A645A6C02F480420092009A01918D
:101F98001A6C42F080521A641B6C03F08053019350
:101FA800019B02B0704700BF0038024000B50F4ADD
:101FB800016885B000239142CDE9013302D005B014
:101FC8005DF804FB02224FF4807368460092039385
:101FD80000F042FD30B9064B0122C3F83C2E05B093
:101FE8005DF804FBFEF72EFEF5E700BF0028004071
:101FF8000000474270B5164B88B01C680022049256
:102008001CBB144A019401211960936B12480B43BD
:102018009363936B0B40019303260C2502A94FF69B
:1020280080720223CDE90223CDE90565019B00F00A
:1020380029F94EF2B373029308480695022302A9C0
:10204800CDE90446039300F01DF908B070BD00BF48
:102058009C0000200038024000100240000C0240A2
:10206800FEE700BFFEE700BFFEE700BFFEE700BFD8
:10207800FEE700BF704700BF704700BF704700BF52
:1020880000F072B8034AD2F8883043F47003C2F8FB
:102098008830704700ED00E0DFF834D0FFF7F2FF3A
:1020A8000C480D490D4A002302E0D458C4500433AB
:1020B800C4188C42F9D30A4A0A4C002301E0136081
:1020C8000432A242FBD301F0ABFBFEF751FA704792
:1020D80000000220000000200C000020A8380008A2
:1020E8000C000020A4000020FEE7000038B50E4ACE
:1020F8000E4B12781B6805464FF47A70B0FBF2F06D
:10210800B3FBF0F000F0A4F808B90F2D01D90120B5
:1021180038BD0446024629464FF0FF3000F05AF811
:10212800034B20461D6038BD04000020000000203D
:102138000800002008B50B4B1A6842F400721A60B8
:102148001A6842F480621A601A6842F480721A604F
:10215800032000F02DF80F20FFF7C8FFFFF70AFF54
:10216800002008BD003C0240034A044B11681B785C
:102178000B441360704700BFA0000020040000203B
:10218800014B1868704700BFA000002038B504460E
:10219800FFF7F6FF631C054602D0044B1B781C446E
:1021A800FFF7EEFF431BA342FAD338BD040000201B
:1021B8000749CA6803024FF6FF0003F4E0630240D0
:1021C800134343F0BF6343F40033CB60704700BF51
:1021D80000ED00E01C4BDB68C3F3022300B5C3F13C
:1021E800070EBEF1040F03F1040C28BF4FF0040ED4
:1021F800BCF1060F1BD9033B4FF0FF3C0CFA03FC64
:1022080022EA0C024FF0FF3C0CFA0EFC21EA0C010A
:102218009940002841EA02010CDB00F16040090105
:1022280000F56140C9B280F800135DF804FB002294
:102238001346E7E7054B00F00F0009010344C9B254
:1022480019765DF804FB00BF00ED00E0FCEC00E04F
:102258000138B0F1807F10D210B44FF0E023084C61
:1022680058614FF0F00C84F823C000220721104673
:102278009A615DF8044B196170470120704700BFEF
:1022880000ED00E02DE9F04F00220C68DFF830A2E5
:10229800844E85B01346894605E00133102B02F1C0
:1022A800020200F08A800121994001EA040BA1434F
:1022B800F3D1D9F804C00CF003014D1E012D7FD9CC
:1022C800032940F0C0809140CD4307683D40294331
:1022D8001CF4403F0160E0D000210391DAF844107B
:1022E80041F48041CAF84410DAF8441001F48041FE
:1022F8000391039923F0030101F1804101F59C3119
:1023080003F003078D68BF004FF00F0E0EFA07FEAB
:1023180025EA0E08644DA84224D005F58065A84238
:1023280000F09580614DA84200F09880604DA84269
:1023380000F09B805F4DA84200F09E805E4DA84251
:1023480000F0A1805D4DA84200F0A480DFF874E1A0
:1023580070450CBF4FF0070E4FF0080E0EFA07F746
:1023680048EA0708C1F80880B1686FEA0B051CF451
:10237800801F0CBF29404BEA0101B160F1681CF4D1
:10238800001F0CBF29404BEA0101F16071681CF481
:10239800003F0CBF29404BEA0101716031681CF411
:1023A800803F03F101030CBF29404BEA0101102BC8
:1023B800316002F102027FF476AF05B0BDE8F08F1C
:1023C800D9F80C50D0F808E005FA02F7032505FA09
:1023D80002F82EEA080E47EA0E078760476827EAE0
:1023E8000B0ECCF300179F4047EA0E076FEA08056B
:1023F8004760C76807EA050ED9F80870974047EAAA
:102408000E070229C76001FA02F17FF45EAF4FEAB6
:10241800D30E00EB8E0E03F00708DEF8207000974D
:10242800D9F810704FEA880807FA08F701970F27BC
:1024380007FA08F8009F27EA0808019F47EA0807F3
:10244800CEF8207041E703259540ED43D1E74FF0E2
:10245800010E0EFA07F748EA070883E74FF0020E65
:102468000EFA07F748EA07087CE74FF0030E0EFA62
:1024780007F748EA070875E74FF0040E0EFA07F762
:1024880048EA07086EE74FF0050E0EFA07F748EA24
:10249800070867E74FF0060E0EFA07F748EA07083D
:1024A80060E700BF003C0140000002400008024015
:1024B800000C0240001002400014024000180240C4
:1024C80000380240001C024002B9090481617047CB
:1024D800044A054B012182B011621B680193019BDC
:1024E80002B0704700000E4200700040002800F063
:1024F800A2812DE9F0410368DD0782B004462FD59B
:102508009E498A6802F00C02042A00F0ED808A686D
:1025180002F00C02082A00F0E3806368B3F5803FFC
:1025280000F0EC80B3F5A02F00F07581934D2A6878
:1025380022F480322A602A6822F480222A60002B42
:1025480040F0E180FFF71CFE064605E0FFF718FEA5
:10255800801B642800F201812B689B03F6D4236852
:102568009F0728D5854A916811F00C0F00F09080DC
:10257800916801F00C01082900F08680E368002BBF
:1025880000F00E817E4B7D4E01221A60FFF7F8FDA8
:10259800054605E0FFF7F4FD401B022800F2DD8048
:1025A80033689807F6D53368226923F0F80343EABD
:1025B800C203336023681A0751D458072FD56F4ACE
:1025C800136C13F080537FD000256E4E3368D90505
:1025D80040F1B380A368012B00F0C380052B00F005
:1025E8002C81664E326F22F001023267326F22F080
:1025F80004023267002B40F0B980FFF7C1FD41F2B9
:102608008838074605E0FFF7BBFDC01B404500F2D0
:10261800A480336F9807F6D4002D40F00681A06996
:10262800C8B1564DAB6803F00C03082B00F0C98005
:10263800534B002202281A6600F00981FFF7A0FD1B
:10264800044605E0FFF79CFD001B022800F2858088
:102658002B689B01F6D4002002B0BDE8F0816369C5
:102668000BB3474B454E0122C3F8802EFFF788FD78
:10267800054604E0FFF784FD401B02286DD8736F00
:102688009B07F7D5236898E7526856023FF576AF5F
:102698003A4A1268950744D5E268012A41D00120D8
:1026A80002B0BDE8F081364A344EC2F8803EFFF7EA
:1026B80067FD054604E0FFF763FD401B02284CD880
:1026C800736F9F07F7D4DDE70193136C43F08053D2
:1026D8001364136C03F080530193019B012574E785
:1026E8004A6850027FF519AF244A126891037FF5B2
:1026F80037AF6268002A7FF433AFD0E71F4A136808
:1027080043F480331360FFF73BFD1C4E054604E09D
:10271800FFF736FD401B64281FD833689A03F7D5A6
:102728001DE7164920690A6822F0F80242EAC00249
:102738000A601A077FF541AF91E7336843F4807365
:102748003360FFF71DFD07463368DA053FF542AFF2
:10275800FFF716FDC01B0228F6D9032002B0BDE81A
:10276800F081064A136F43F001031367FFF708FD72
:10277800024F064641F288380BE000BF003802409D
:102788000000474200700040FFF7FAFC801B4045FC
:10279800E3D83B6F9B07F7D5002D3FF440AF44E0EB
:1027A800424A434E1360FFF7EBFC054604E0FFF78F
:1027B800E7FC401B0228D0D833689907F7D4236870
:1027C800F9E601283FF448AF6B68E26903F4800139
:1027D80091427FF464AF226A03F03F0191427FF493
:1027E8005EAF616A47F6C0721A40B2EB811F7FF490
:1027F80056AFA26A520803F44031013AB1EB024FD6
:102808007FF44DAFE26A03F07063B3EB026F14BF5D
:102818000120002020E7264B1A6842F480221A6023
:102828001A6842F480321A606DE7214A136C23F06B
:1028380080531364F3E6012070471D4B1A6F42F072
:1028480004021A671A6F42F001021A678EE7FFF74F
:1028580097FC064605E0FFF793FC801B02283FF62D
:102868007CAF2B689901F6D4D4E90731626A0B432F
:1028780043EA8213D4E90A21520843EA0163013A80
:102888000A4943EA024301226B600A66FFF778FCB3
:10289800074D044605E0FFF773FC001B02283FF6CE
:1028A8005CAF2B689A01F6D5D5E600BF0000474219
:1028B80000380240164908B58B6803F00C03042B56
:1028C8001BD0082B17D14A684B68496813F480035A
:1028D80002F03F0213D10F48C1F38811A1FB000198
:1028E800FDF76EFC0A4B5B68C3F3014301335B00E1
:1028F800B0FBF3F008BD074808BD074808BD064807
:10290800C1F388110023A1FB0001FDF759FCE9E799
:10291800003802400024F40040787D01002800F0CF
:102928008780484A136803F007038B422DE9F0417A
:102938000D46044609D2CBB21370136803F007039F
:102948008B4202D00120BDE8F0812368980714D596
:10295800590704D53C498A6842F4E0528A601A074C
:1029680004D539498A6842F460428A603649A068C9
:102978008A6822F0F00202438A60DF0721D5626884
:10298800012A57D0931E012B2F4B1B684DD999074D
:10299800D8D52D4EB36823F003031343B360FFF774
:1029A800EFFB41F28838074604E0FFF7E9FBC01B5C
:1029B800404544D8B368626803F00C03B3EB820F58
:1029C800F3D1204A136803F00703AB4206D9EBB2F0
:1029D8001370136803F00703AB42B3D123685A0797
:1029E80006D51949E0688A6822F4E05202438A60F1
:1029F8001B0707D5144A2169936823F4604343EA07
:102A0800C1039360FFF756FF0F4A104C92681049B4
:102A1800C2F303120346A25C0E48D34000680B6061
:102A2800FFF764FB0020BDE8F0819801B1D489E785
:102A380001207047044B1B689E03AAD482E7032039
:102A480081E700BF003C0240003802408838000897
:102A58000000002008000020F0B5036813F0050FFF
:102A680083B0044605D113F002033BD1184603B0E6
:102A7800F0BD464B464E00229A66FFF781FB05469D
:102A880004E0FFF77DFB431B022B28D833681F01A6
:102A9800F7D4D4E901131B0743EA81133B4AC6F86C
:102AA800843001239366FFF76BFB394E054604E03B
:102AB800FFF766FB401B022811D833681801F7D5C9
:102AC8002368D0E7FFF75CFB41F2883706462B6F97
:102AD8009B073CD4FFF754FB801BB842F7D903206F
:102AE80003B0F0BD2A4B2B4D002201921A6C42F024
:102AF80080521A641B6C03F080530193019B2B686E
:102B080043F480732B60FFF73BFB064604E0FFF7B6
:102B180037FB831B022BE2D82B68D905F7D51C4D50
:102B2800E3682A6F12F4407212D003F440719142A4
:102B380010D02B6F154A0121C2F8401E23F44073B0
:102B48000021C2F8401E2B672B6FDA07BAD4E3685E
:102B580003F44072B2F5407F0DD00D498A6822F423
:102B6800F8128A600A4A116FC3F30B0300200B4363
:102B7800136703B0F0BD0648826823F0704121F462
:102B8800407122F4F8120A438260EBE700004742E2
:102B98000038024000700040002854D038B5437F08
:102BA800044603F0FF024BB1022223686277DA6819
:102BB800D20607D501236377002038BD0277FFF7D7
:102BC800F5F9F1E75322CA2159625A62DA685506C3
:102BD80026D599686268256921F4E00121F0400151
:102BE8009960616998682A430A430243E1689A60D8
:102BF80019611A69A16842EA01421A61DA6822F089
:102C08008002DA609A68910627D51A6CA06922F4C6
:102C180080221A641A6CFF2102431A645962C9E7B8
:102C2800DA6842F08002DA60FFF7AAFA054605E0A2
:102C3800FFF7A6FA401BB0F57A7F06D82368DA6852
:102C48005006C6D4F4E7012070470423226863774E
:102C5800D368FF235362012038BD094ADA60FFF7C1
:102C68008FFA05462368DA689206CED4FFF788FA09
:102C7800401BB0F57A7FF5D9042322686377E8E72B
:102C88005F7F0100037F012B00F074822DE9F0477C
:102C980002230C4601210177054601684377002A83
:102CA80040F00182886894F800C010F0400016BF18
:102CB800E078E0708005BCF1090F40F29E80D94EA3
:102CC800ACF10A03DFB2A6FB076E4FEADE0E4F2F08
:102CD8000EF1010E40F26082ACF12806002366F383
:102CE8000703ACF1320666F30F23ACF13C0666F33A
:102CF8001743ACF1460666F31F6303F07F3783F092
:102D0800B03607F1303806F0803683F0F63386EABD
:102D180008064FEADE0803F0803307F17637B8F18A
:102D2800010F83EA070300F02D8206F07F3386F057
:102D3800B03786F0F63603F1303907F0803706F001
:102D4800803603F17633B8F1030F87EA090783EA7F
:102D5800060340F00D8287F0F63307F07F3707F15E
:102D6800763703F080337B4018270EF03806C6EB21
:102D78004618C6EB88080CEB480CB6454FEA1363B7
:102D88005FFA8CFC35D0ACF10A03DBB2092B06F1F3
:102D980001072ED9ACF11403DBB2092B06F10207A7
:102DA80027D9ACF11E03DBB2092B06F1030720D9A2
:102DB800ACF12803DBB2092B06F1040719D9ACF1F1
:102DC8003203DBB2092B06F1050712D9ACF13C033B
:102DD800DBB2092B06F106070BD9ACF14603DBB2CF
:102DE800092B06F1070704D9ACF1500306F10807CF
:102DF800DBB243EA07135FFA83FC6678092E4FEAD1
:102E08000C4C40F29F80874FA6F10A035FFA83FEBD
:102E1800A7FB0E87FF08BEF14F0F07F1010740F22D
:102E2800B881A6F1280E00236EF30703A6F1320E2F
:102E38006EF30F23A6F13C0E6EF31743A6F1460E70
:102E48006EF31F6303F07F3883F0B03E83F0F633F0
:102E580008F1303903F0803308F1763883EA080343
:102E68004FEAD7080EF0803EB8F1010F8EEA090E3E
:102E780000F085810EF07F398EF0B03A8EF0F6338F
:102E880003F080330AF0803EB8F1030F09F1303ABD
:102E980009F176398EEA0A0E83EA090340F0658162
:102EA8000EF07F338EF0F63E03F176330EF0803E5F
:102EB80083EA0E034FF0180807F0380ECEEB4E19D0
:102EC800CEEB890906EB490677454FEA1363F6B25C
:102ED80035D0A6F10A03DBB2092B0EF101082ED971
:102EE800A6F11403DBB2092B0EF1020827D9A6F1CB
:102EF8001E03DBB2092B0EF1030820D9A6F1280323
:102F0800DBB2092B0EF1040819D9A6F13203DBB2A2
:102F1800092B0EF1050812D9A6F13C03DBB2092BE7
:102F28000EF106080BD9A6F14603DBB2092B0EF108
:102F3800070804D9A6F150030EF10808DBB243EAEA
:102F48000813DEB294F802E0BEF1090F4FEA062634
:102F580040F2A280334FAEF10A035FFA83F8A7FB71
:102F68000897FF08B8F14F0F07F101075CD9AEF1D8
:102F78002802002362F30703AEF1320262F30F2343
:102F8800AEF13C0262F31743AEF1460262F31F63EF
:102F980003F07F3883F0B03283F0F63308F130392C
:102FA80003F0803308F1763883EA08034FEAD7083C
:102FB80002F08032B8F1010F82EA090200F0DC80E9
:102FC80002F07F3982F0B03A82F0F63202F08033B4
:102FD8000AF0803A09F13032B8F1030F09F1763975
:102FE8008AEA020283EA090340F0BC8082F0F633E1
:102FF80002F07F3203F0803302F1763253404FF013
:10300800180807F03802C2EB4219C2EB89090EEB27
:10301800490EBA424FEA13635FFA8EFE38D0AEF11A
:103028000A0301E0CDCCCCCCDBB2092B02F10108BC
:103038002ED9AEF11403DBB2092B02F1020827D90D
:10304800AEF11E03DBB2092B02F1030820D9AEF161
:103058002803DBB2092B02F1040819D9AEF13203B7
:10306800DBB2092B02F1050812D9AEF13C03DBB241
:10307800092B02F106080BD9AEF14603DBB2092B86
:1030880002F1070804D9AEF1500302F10808DBB2D7
:1030980043EA08135FFA83FE4CEA000C4CEA060682
:1030A80046EA0E0610E08B686678227813F0400333
:1030B8004FEA062614BFE378E37046EA0246A27890
:1030C80018BF9B0516431E43CA234B6253234B620A
:1030D800CB685F061ED506F07F3626F0FE460E60EA
:1030E8008A68E36822F480228A60226913438A6826
:1030F80013438B60CB6823F08003CB608B689A0600
:103108001FD501236B770020FF2200234A622B770B
:10311800BDE8F087CB6843F08003CB60FFF730F859
:1031280007462968CB685806D5D4FFF729F8C01B8D
:10313800B0F57A7FF5D9042329686B77CB6801202D
:10314800E2E7164BCB60FFF71BF8044605E0FFF7F4
:1031580017F8001BB0F57A7F16D82968CB689B064C
:10316800F5D5CEE74FF010084BE74FF01008A3E66F
:103178001027FAE5022070474FF0080841E74FF0A2
:10318800080899E60827F0E5042329686B770120E9
:10319800BAE74FF0000E9EE60026F6E55F7F0100D5
:1031A800037F012B00F057822DE9F04104460223EA
:1031B80001202077637742B34D78C8788A780B78F6
:1031C8002D0245EA0045154345EA43352368532255
:1031D800CA2159625A62DA68560640F1068225F019
:1031E8007F4525F0C0055D60DA6822F08002DA606C
:1031F8009A68910640F11882012262770020FF2127
:10320800002259622277BDE8F0814878C70640F16C
:10321800048291F803C020F010000A30C0B2BCF15B
:10322800090F487040F21F82CF4DACF10A03DEB29D
:10323800A5FB0675ED084F2E05F1010540F21E822B
:10324800ACF12806002366F30703ACF1320666F3F7
:103258000F23ACF13C0666F31743ACF1460666F360
:103268001F6303F07F3683F0B03E06F130370EF06F
:10327800803E83F0F6338EEA070EEF0803F08033C2
:1032880006F17636012F83EA060300F0E6810EF098
:103298007F338EF0B0368EF0F63E03F1303806F00C
:1032A80080360EF0803E03F17633032F86EA080657
:1032B8008EEA030340F0CB8186F0F63306F07F36C2
:1032C80006F1763603F080337340182605F0380E81
:1032D800CEEB4E17CEEB87070CEB470775454FEA49
:1032E80013635FFA87FC35D0ACF10A03DBB2092B14
:1032F8000EF101062ED9ACF11403DBB2092B0EF145
:10330800020627D9ACF11E03DBB2092B0EF1030626
:1033180020D9ACF12803DBB2092B0EF1040619D928
:10332800ACF13203DBB2092B0EF1050612D9ACF170
:103338003C03DBB2092B0EF106060BD9ACF14603B0
:10334800DBB2092B0EF1070604D9ACF150030EF1DC
:103358000806DBB243EA06135FFA83FC09284FEA42
:103368000C4C40F29880804DA0F10A03DEB2A5FB18
:103378000675ED084F2E05F1010540F27C81A0F19C
:103388002806002366F30703A0F1320666F30F232D
:10339800A0F13C0666F31743A0F1460666F31F63E7
:1033A80003F07F3683F0B03E06F130370EF0803EF2
:1033B80083F0F6338EEA070EEF0803F0803306F148
:1033C8007636012F83EA060300F04B810EF07F3337
:1033D8008EF0B0368EF0F63E03F1303806F08036C7
:1033E8000EF0803E03F17633032F86EA08068EEA54
:1033F800030340F02E8106F07F3386F0F63606F0A0
:10340800803603F176337340182605F0380ECEEB7C
:103418004E17CEEB870700EB470075454FEA13635D
:10342800C0B235D0A0F10A03DBB2092B0EF10106B8
:103438002ED9A0F11403DBB2092B0EF1020627D90D
:10344800A0F11E03DBB2092B0EF1030620D9A0F16F
:103458002803DBB2092B0EF1040619D9A0F13203B7
:10346800DBB2092B0EF1050612D9A0F13C03DBB241
:10347800092B0EF106060BD9A0F14603DBB2092B86
:103488000EF1070604D9A0F150030EF10806DBB2CD
:1034980043EA0613D8B291F802E0BEF1090F4FEAE9
:1034A800002040F29B80304DAEF10A03DEB2A5FB4E
:1034B8000675ED084F2E05F1010557D9AEF1280222
:1034C800002362F30703AEF1320262F30F23AEF179
:1034D8003C0262F31743AEF1460262F31F6303F046
:1034E8007F3683F0B03206F1303702F0803283F055
:1034F800F6337A40EF0803F0803306F17636012F71
:1035080083EA060300F0AB8002F07F3382F0B03626
:1035180082F0F63203F1303806F0803602F080325D
:1035280003F17633032F86EA080683EA020340F0A4
:103538008C8086F0F63306F07F3606F1763603F097
:1035480080337340182605F03802C2EB4217C2EBED
:1035580087070EEB4707AA424FEA13635FFA87FE15
:1035680038D0AEF10A0301E0CDCCCCCCDBB2092BCC
:1035780002F101062ED9AEF11403DBB2092B02F1D8
:10358800020627D9AEF11E03DBB2092B02F10306AE
:1035980020D9AEF12803DBB2092B02F1040619D9B0
:1035A800AEF13203DBB2092B02F1050612D9AEF1F6
:1035B8003C03DBB2092B02F106060BD9AEF1460338
:1035C800DBB2092B02F1070604D9AEF1500302F170
:1035D8000806DBB243EA06135FFA83FE0D784CEA6D
:1035E8004535054345EA0E05F0E5DA6842F0800204
:1035F800DA60FEF7C5FD06462368DA6850063FF52F
:10360800EEADFEF7BDFD801BB0F57A7FF4D904223C
:1036180023686277DA680120F1E591F803C0BCF10C
:10362800090F3FF601AE99E6164ADA60FEF7A8FDE3
:10363800054605E0FEF7A4FD401BB0F57A7F15D8D6
:103648002368DA689206F5D5D6E510267BE71026BA
:103658003CE61026D9E602207047082636E60826FA
:1036680071E70826D1E64FEA0C4C7CE60422236871
:1036780062770120C3E54FF0000ED5E64FF0000E4B
:1036880034E600BF5F7F01000368503353F8210020
:10369800704700BF037F012B1CD0036810B4CA22F7
:1036A800022444775A6253225A629C6824F4002404
:1036B8009C609C68214399609968FF2441F400014B
:1036C800996000225C620123437702775DF8044B1E
:1036D800104670470220704748B370B590F84930DB
:1036E80015460E46044603F0FF02DBB1214651F8A9
:1036F800080B00F01FF8A2682068314600F050F867
:10370800D4E90102236B294600F068F82268A16811
:1037180052F8213001252B4342F8213084F84950D2
:10372800002070BD80F84820FEF764FCDEE7012029
:10373800704700BF30B4D1E90134CA680D6923432A
:103748001343A4F1080C4C690A682B432343CC6942
:1037580023430C6A234350F8224024F0010440F824
:1037680022404C6A23438C6A2343CC6A23430C6B64
:1037780023438C69C96B23430B4350F82240074904
:10378800BCFA8CFC21404FEA5C1C0B4343EA8C13C7
:1037980040F8223030BC0020704700BF8000F0FFA6
:1037A80010B40B688C6923434C6843EA04138C6893
:1037B80043EA0423CC6843EA0443D1E9044104F111
:1037C800FF3C013243EA0C53023943EA016340F8F3
:1037D80022305DF8044B0020704700BFB3F5804FDE
:1037E80005D06FF0704340F822300020704730B4A5
:1037F8000B688D6950F822402B434D6843EA051346
:103808008D68C96843EA052343EA01430349214017
:103818000B4340F8223030BC002070470000F0CF46
:1038280070B50D4D0D4C641BA4100026A64209D19D
:103838000B4D0C4C00F018F8641BA4100026A6428F
:1038480005D170BD55F8043B98470136EEE755F8A9
:10385800043B98470136F2E7A0380008A038000872
:10386800A0380008A4380008F8B500BFF8BC08BCA8
:103878009E467047F8B500BFF8BC08BC9E46704726
:103888000000000000000000010203040607080908
:0838980060C9FF7F0100000080
:0438A000AD0100086E
:0438A400890100088E
:0C38A8000024F4000100000010000000EB
:04000005080020A12E
:00000001FF
