:020000040800F2
:1000000000000220C50E00083D0E0008410E000849
:10001000450E0008490E00084D0E000800000000C3
:10002000000000000000000000000000510E000869
:10003000550E000800000000590E00085D0E000873
:10004000150F0008150F0008150F0008150F000800
:10005000150F0008150F0008150F0008150F0008F0
:10006000150F0008150F0008150F0008150F0008E0
:10007000150F0008150F0008150F0008150F0008D0
:10008000150F0008150F0008150F0008150F0008C0
:10009000150F0008150F0008150F0008150F0008B0
:1000A000150F0008150F0008150F0008150F0008A0
:1000B000150F0008150F0008150F0008150F000890
:1000C000150F0008150F0008150F0008150F000880
:1000D000150F0008150F0008150F0008150F000870
:1000E000150F0008150F0008150F0008150F000860
:1000F000150F0008150F0008150F0008150F000850
:10010000150F0008150F0008150F0008150F00083F
:10011000150F0008150F0008150F0008150F00082F
:10012000150F0008150F0008150F0008150F00081F
:10013000150F0008150F0008150F0008150F00080F
:10014000150F0008150F0008150F0008150F0008FF
:10015000150F0008150F0008150F0008150F0008EF
:10016000150F0008150F0008150F0008150F0008DF
:10017000150F0008150F0008150F000800000000FB
:08018000150F0008150F00081F
:1001900010B5054C237833B9044B13B10448AFF3C1
:1001A00000800123237010BDAC000020000000007F
:1001B000ECAD040808B5034B1BB103490348AFF38A
:1001C000008008BD00000000B0000020ECAD040875
:1001D00010F8012B11F8013B012A28BF9A42F7D0F1
:1001E000D01A7047034613F8012B002AFBD1181AC6
:1001F000013870470000000000000000000000000F
:1002000001F0FF01102A2BDB10F0070F08D010F8C7
:10021000013B013A8B422DD010F0070F42B3F6D1CB
:10022000F0B441EA012141EA014122F007047FF0E4
:1002300000070023F0E80256083C85EA010586EA3B
:10024000010685FA47F5A3FA87F586FA47F6A5FA77
:1002500087F68EB9EED1F0BC01F0FF0102F0070283
:1002600032B110F8013B013A83EA010313B1F8D12E
:100270000020704701387047002D06BF354603380F
:10028000073815F0010F07D1013015F4807F02BF48
:10029000013015F4C03F0130F0BC0138704700BF99
:1002A0007BB972B90029BEBF00204FF0004106E0C3
:1002B00008BF00281CBF6FF000414FF0FF3000F076
:1002C000BBB9ADF1080C6DE904CE002909DB002BA8
:1002D0001ADB00F04DF8DDF804E0DDE9022304B09C
:1002E0007047404261EB4101002B1BDB00F040F8FE
:1002F000DDF804E0DDE9022304B0404261EB410196
:10030000524263EB43037047524263EB430300F0F6
:100310002FF8DDF804E0DDE9022304B0404261EB90
:1003200041017047524263EB430300F021F8DDF8CE
:1003300004E0DDE9022304B0524263EB430370475B
:1003400053B94AB9002908BF00281CBF4FF0FF313C
:100350004FF0FF3000F070B9ADF1080C6DE904CE3C
:1003600000F006F8DDF804E0DDE9022304B0704790
:100370002DE9F047089E0D4604460F46002B4AD152
:100380008A42944665D9B2FA82F343B102FA03FC79
:10039000C3F120029F4020FA02F217439C404FEA2B
:1003A0001C4E1FFA8CF5B7FBFEF1220C0EFB1177E9
:1003B00042EA074201FB05F090420AD91CEB020217
:1003C00001F1FF3780F01C81904240F2198102391F
:1003D0006244121AA4B2B2FBFEF00EFB102244EAF1
:1003E000024400FB05F5A5420AD91CEB040400F108
:1003F000FF3280F00781A54240F204816444023854
:1004000040EA0140641B00211EB1DC400023C6E924
:100410000043BDE8F0878B4208D9002E00F0ED8044
:100420000021C6E900050846BDE8F087B3FA83F16C
:10043000002949D1AB4202D3824200F2F880841AEB
:1004400065EB030201201746002EE2D0C6E9004703
:10045000DFE702B9FFDEB2FA82F3002B40F09080B2
:100460008A1A4FEA1C471FFA8CFE0121B2FBF7F5EE
:1004700007FB1520220C42EA00420EFB05F09042D9
:1004800008D91CEB020205F1FF3802D2904200F2BB
:10049000CB804546121AA4B2B2FBF7F007FB10223C
:1004A00044EA02440EFB00FEA64508D91CEB0404F6
:1004B00000F1FF3202D2A64500F2BB801046A4EB49
:1004C0000E0440EA05409FE7C1F120078B4022FA65
:1004D00007FC4CEA030C05FA01F420FA07F3FD408F
:1004E0004FEA1C492343B5FBF9F81FFA8CFE09FBC0
:1004F00018551C0C44EA054408FB0EF5A54202FA07
:1005000001F200FA01F00BD91CEB040408F1FF3AE8
:1005100080F08880A54240F28580A8F102086444FA
:10052000641B9DB2B4FBF9F309FB134445EA044490
:1005300003FB0EFEA64508D91CEB040403F1FF35AE
:100540006CD2A6456AD9023B644443EA0843A3FB44
:100550000295A4EB0E04AC42C846AE4656D353D027
:1005600056B1B0EB080264EB0E0404FA07F7CA4078
:10057000CC401743C6E9007418460021BDE8F08757
:10058000C3F1200102FA03FC20FA01F225FA01F17D
:100590009D402A434FEA1C471FFA8CFEB1FBF7F03F
:1005A00007FB1015110C41EA054100FB0EF58D42C9
:1005B00004FA03F408D91CEB010100F1FF382FD233
:1005C0008D422DD902386144491B92B2B1FBF7F537
:1005D00007FB151142EA014205FB0EF1914208D9D1
:1005E0001CEB020205F1FF3816D2914214D9023DEC
:1005F0006244521A45EA004138E73146304608E77E
:100600003946E6E61046FBE64845A9D2B9EB0208B2
:1006100065EB0C0E013BA3E74546EAE72B4694E762
:100620004046D1E7D0467BE7023D624432E70846C8
:100630000AE76444023842E7704700BF70B50D46D0
:100640008B89144606460A892888898800F064FB4D
:10065000AB682A6869689A1AEB685B1A013302FB77
:1006600003332BB1054934F8022B0A80013BFAD140
:100670003046BDE870400BF02DBC00BF00000860A4
:1006800000B55F4B5F491A685F4889B00023CDE928
:100690000433CDE90633D3B203914A2B4FEA12411A
:1006A0000190ADF808208DF80A1004D19DF80920BA
:1006B000612A00F09180462B08D19DF80920652A17
:1006C00004D19DF80A20622A00F093804D2B08D1B6
:1006D0009DF80920612A04D19DF80A20722A00F0B1
:1006E0008A80412B08D19DF80920702A04D19DF8F9
:1006F0000A20722A00F081804D2B1ED04A2B29D06F
:10070000412B37D0532B3FD04F2B47D04E2B4FD0C0
:10071000442B57D003A900223C4849F025F801A9F1
:1007200000223A4849F0EAFA38484AF2A552002134
:1007300049F08EFD09B05DF804FB9DF80920612A9F
:10074000DCD19DF80A20792AD8D1042201328DF813
:100750000520DFE79DF80920752A44D04A2BCFD128
:100760009DF80920752ACBD19DF80A206C2AC7D1A3
:100770000622EBE79DF80920752AC3D19DF80A20CF
:10078000672ABFD10722E1E79DF80920652ABBD17E
:100790009DF80A20702AB7D10822D7E79DF80920D2
:1007A000632AB3D19DF80A20742AAFD10922CDE77C
:1007B0009DF809206F2AABD19DF80A20762AA7D18F
:1007C0000A22C3E79DF80930652BA3D19DF80A30B2
:1007D000632B9FD10B22B9E7CAB26E3AB6D0462B33
:1007E0007FF474AF69E79DF80A206E2AB6D105221E
:1007F000ACE70122AAE70222A8E70322A6E700BF8E
:10080000B07D05080E1537000000081AC8FA002050
:100810002DE9F04186B00BF081FC0546002031F057
:10082000F9F9C0F30743C0F30722494C8DF80A30A9
:100830008DF808008DF809200299DFF83481454FC2
:100840000022284609F0CCFA204633F0FFF942494D
:10085000204633F0B3FC4FF6FF7031F0DBF9C0F304
:100860000743C0F307228DF80E308DF80D208DF868
:100870000C000399204633F093FC284640F04EFDCF
:1008800000222146C8F8000008F074FBD8F80000E8
:10089000324940F04FFD6FF03B03D8F800006FF095
:1008A0004F02092104F098F9284640F037FD21460F
:1008B0000022386008F05EFB4EF21C703E6831F09A
:1008C000A9F90346C3F30722C3F307438DF8123097
:1008D0008DF810008DF8112004993046002209F09F
:1008E000A3FA002638681E4940F024FD3346D8F8A4
:1008F000001038680096152204F0A6FF284640F044
:100900000DFD184D21463246286008F033FB16488D
:100910002C6831F07FF9C0F307238DF81400C0F381
:1009200007408DF815308DF816003246059920469F
:1009300009F07AFA28680D4940F0FCFC2868462343
:100940003246092106B0BDE8F04104F045B900BFC8
:1009500038FB002048FB00202CAE0408BC7D0508B5
:10096000C47D050844FB002000FFFF00C87D05088A
:100970004CFB002010B5154C88B003A9002220467E
:1009800049F080F902A90022204649F02BFC1048CA
:100990009DF80D309DF80C200E49006840F058FD80
:1009A0000D4B9DF80E2018680C4940F051FD0C4885
:1009B0009DF80B4000689DF809309DF80A20094910
:1009C000009440F045FD08B010BD00BFC8FA0020FB
:1009D0004CFB0020D47D050848FB0020EC7D050879
:1009E00044FB0020E07D050810B5002394B0CDE95C
:1009F0000A33CDE90333CDE90533254901930C933F
:100A000009930D930793086C224A40F080500864C4
:100A1000096C01F08051019101990293116841F430
:100A20008041116012680F9302F4804210239FED01
:100A3000167B062002920C9308224023CDE9102356
:100A4000022408900222042308A88DED0A7BCDE938
:100A5000122302990E9448F0BBFA08B172B6FEE771
:100A60000F210346CDE903144FF4805203A8214619
:100A7000CDE90532079348F0C3FC08B172B6FEE732
:100A800014B010BDAFF300800100000001000000B1
:100A90000038024000700040F0B500248FB048F0EC
:100AA000B1F8FFF7A1FFCDE90744CDE90944704B48
:100AB00003940B94196B6F4841F004011963196B8F
:100AC00001F00401039103990494196B012211436D
:100AD0001963196B1140049104990594196B41F045
:100AE00010011963196B01F0100105910599069425
:100AF000196B41F0080119631B6B03F0080306939F
:100B0000C021069B012548F047FAC023594807A990
:100B1000CDE90735CDE9094448F01CF956480D9454
:100B20004FF02043036003F5827343601023C0E954
:100B300004434FF4805383620A2307930223CDE9D1
:100B40000A5308930C9322460F2307A9C0E90244D5
:100B5000C0E90644C0E90844C0E90B44C0E90D44BB
:100B60004464099349F0A2FB08B172B6FEE7434C16
:100B7000434A22607F220346C4E90102CDE907000F
:100B8000CDE909000B900290FF222046C4E904330E
:100B9000E260A36148F072FD064608B172B6FEE756
:100BA00048F008FA3146204649F058FB4AF2A5576A
:100BB000B84212D007A92A462046CDE90A66ADF808
:100BC0001C608DF81E6048F0CFFD00283CD072B646
:100BD000FEE73A46204649F03BFB00F05BF82FF079
:100BE00007F84FF4F0714FF448700AF091FF0024B9
:100BF000244905460BF058F94FF47A4322490094F2
:100C0000224628460BF0D2F8FFF702FE1B48214689
:100C100049F024FB4AF2A553984212D1154D002405
:100C200034F00CFD48F014F8031BF92BF8D9FFF74A
:100C3000A1FE4021284648F0B3F948F009F80446DF
:100C4000EEE7FFF71DFDE9E7104B02932A4602A9E4
:100C5000204649F053F808B172B6FEE74FF4002180
:100C6000204649F001FB01460028B2D072B6FEE7EB
:100C70000038024000000240E8FA0020C8FA0020D4
:100C8000002800403D060008C800002001010100C6
:100C900072B6FEE708B5052047F0E0FF4FF0C04010
:100CA0001B4A4FF0040CA0F800C000214FF0050CC7
:100CB0001180A0F800C04FF00C0C11800223A0F8A6
:100CC00000C04FF00D0C1380A0F800C04FF00F0CC7
:100CD0001180A0F800C00380032311800380062345
:100CE0001180038040F2DF1313800723038040F25A
:100CF0001F331380074BA0F800C0013B1180FCD1CB
:100D00004FF0C041012010230880138008BD00BFB0
:100D10000000086000DC050010B54FF0C04C0B4C23
:100D20004FF0020EACF800E021800321ACF8001077
:100D300006212080ACF80010238007210F23ACF897
:100D400000102280ACF8003010BD00BF0000086029
:100D500082B00C4B002100915A6C42F480425A64DC
:100D60005A6C02F480420092009A01911A6C42F08F
:100D700080521A641B6C03F080530193019B02B0F4
:100D8000704700BF0038024000B50F4A016885B0C7
:100D900000239142CDE9013302D005B05DF804FB98
:100DA00002224FF4807368460092039348F0C6FB1A
:100DB00030B9064B0122C3F83C2E05B05DF804FBA8
:100DC000FFF766FFF5E700BF00280040000047423C
:100DD00070B5164B88B01C68002204921CBB144AE4
:100DE000019401211960936B12480B439363936B39
:100DF0000B40019303260C2502A94FF680720223B3
:100E0000CDE90223CDE90565019B47F0A3FF4EF232
:100E1000B373029308480695022302A9CDE904465C
:100E2000039347F097FF08B070BD00BF50FB002050
:100E30000038024000100240000C0240FEE700BFF4
:100E4000FEE700BFFEE700BFFEE700BFFEE700BF12
:100E5000704700BF704700BF704700BF08B547F03C
:100E6000EBFEBDE80840012038F052B90C490D4AAC
:100E70000B6810B50C4C121B2BB11844904207D8CC
:100E80000860184610BD094B0B6018449042F7D912
:100E900049F02EFC0C2303604FF0FF33184610BDC1
:100EA00054FB0020000002200004000098FE0020F7
:100EB000034AD2F8883043F47003C2F88830704790
:100EC00000ED00E0DFF834D0FFF7F2FF0C480D49E9
:100ED0000D4A002302E0D458C4500433C4188C4295
:100EE000F9D30A4A0A4C002301E013600432A242FB
:100EF000FBD349F003FCFFF7CFFD70470000022051
:100F000000000020AC000020E8CC0508AC00002068
:100F100094FE0020FEE700002DE9F047C568064674
:100F2000894690464FF0010A0027002D4ED02946F1
:100F30003046C047002F08BF2F46B842054642D072
:100F4000002D43D0286801F0E1FA8305EDD42C6828
:100F500024B910E009F08AFA044660B10121204664
:100F600001F0C4FA03462046002BF3D0012101F022
:100F7000BDFA0028D9D1F368AB4224D0002B46D06B
:100F80000020D3F800802CF001FA0446A0B100271D
:100F90000BE02CF013FA034620469E4208BF27467A
:100FA0002CF0F4F9044600285ED020462CF0FEF91F
:100FB0000346012B2046ECD122461421404602F084
:100FC0002FFB01281FD00020BDE8F087337F1A07D0
:100FD0000DD4002FF7D1BAF1000FF4D03046C84736
:100FE0000746002FEFD03D464FF0000AAAE7BAF1BE
:100FF000000FE8D03046C8474FF0000A0546002FE2
:101000009ED10746EDE7F368186805F05BF8F560D8
:1010100000202F682CF0BAF9044698B100250AE0A8
:101020002CF0CCF9034620469E4208BF25462CF002
:10103000ADF9044608B320462CF0B8F90346012B5D
:101040002046EDD122461321384602F0E9FA012864
:101050000446B8D1F368186805F034F8336973B101
:10106000304698472046AFE73C462246142140468A
:1010700002F0D6FA0128A6D1C5E72C46E2E72046C1
:10108000A2E700BF0148202131F0BCBC90FB00204A
:10109000014B586C704700BF58FB00202DE9F04110
:1010A00082B0054601F036FAF0B1C368044613B1C8
:1010B0001B68AB421BD0204631F02CFD014620B905
:1010C00012E031F02FFD014670B10B68AB422046B3
:1010D000F7D1019131F0F6FC0199084634F0CEFBCE
:1010E000AB680BB100225A6002B0BDE8F081037F0B
:1010F000DE0744BF6FF30003037731F00BFDE268B6
:1011000082422ED0237FC3F3C00643F00803580762
:1011100023770ED4D90754D42D4A2E492046FFF701
:10112000FBFE636983B178B9012120469847E268E4
:101130000BE0DB073ED4284A28492046FFF7ECFEA7
:1011400063690BB1002838D0E268237F66F3C303DC
:101150002377002AAFD013689D4204BF0023E360C9
:10116000A9E7204631F0DAFCE26890420346C9D193
:101170000020D3F800802CF009F9064698B100272A
:101180000AE02CF01BF9034630469C4208BF374664
:101190002CF0FCF80646C0B130462CF007F90346A7
:1011A000012B3046EDD132461421404602F038FA88
:1011B000E268CEE76369002BC7D00021204698473C
:1011C000C2E76369002BAFD1BFE73E46EBE700BF44
:1011D000252B0308152B03082D2B03081D2B0308B3
:1011E000A8B170B50D4604460846FFF757FFAB6837
:1011F0002BB35C60204631F04FFC064630B10560F1
:10120000204631F087FC864202D070BDFEE7704771
:10121000227F42F008010B4621775907C2F3C0052F
:1012200012D4DA0726D4154A15492046FFF774FE72
:1012300063699BB190B90121204698470EE028468A
:1012400001F06EF9AB68D4E7DB070CD40D4A0E4908
:101250002046FFF761FE636903B138B1237F65F370
:10126000C303237770BD6369002BF7D000212046AC
:101270009847F3E76369002BDDD1EFE7252B0308DF
:10128000152B03082D2B03081D2B030860B1037FCA
:10129000DB0710B5044608D4084A0949FFF73CFEAD
:1012A000636903B120B110BDFEE74369002BFAD09A
:1012B00020460121BDE81040184700BF252B030838
:1012C000152B030870B3F8B5037FC3F340028A42BD
:1012D000054626D0C26861F3410303770AB3176855
:1012E000FFB100202CF052F8044698B100260AE025
:1012F0002CF064F8034620469D4208BF26462CF099
:1013000045F80446A0B120462CF050F80346012BC6
:101310002046EDD122461321384602F081F90128FA
:1013200001D0F8BDFEE73846BDE8F84004F0CABE7B
:10133000344622461321384602F072F90128F0D1D2
:10134000F1E700BF10B1C06800B10068704700BF8E
:1013500010B1007FC0F34000704700BF2DE9F0419D
:10136000BEB0064631F0E0F80546304631F0D8F818
:101370001A2D04460AD01D2D00F001811E2D00F00B
:101380004681202D16D03EB0BDE8F081304631F0C8
:10139000CFF80378022B0546F5D0802200212046A5
:1013A00006F076FF06461690002800F070810223B2
:1013B0002B70E8E7304602F067FA05AE3246054684
:1013C00001A9204606F04AFB01A82FF09BFC28B992
:1013D00030462FF097FC002800F08F8016AF38467B
:1013E0000DF090FE48224FF48031204606F050FF69
:1013F0000990C0B202288DF8920000F2E3813A22EF
:101400004FF48031204606F043FFC3B2022B09900F
:101410008DF8933000F2E48151224FF48031204660
:1014200006F036FFC3B2022B09908DF8953000F21A
:10143000BB814FF48031204607F0FEF8FC2840F2D3
:101440006281BDF892301BB99DF89530002B54D0C5
:1014500078224FF48031204606F01AFF89224FF49B
:10146000803109902090204606F012FF09908046B6
:1014700009A80BF031FD209B149388224FF4803192
:10148000204606F005FF0090139001A82FF03AFCCB
:10149000E8B1B8F1000F40F0D58101AA09A92846AA
:1014A000CDF82C800BF022FD01AA39462846CDF854
:1014B00060800DF0ADFE284601AA09A90BF016FDCB
:1014C00030462FF01FFCC0B101230B9309E03046DA
:1014D0002FF018FC88B101230B93B8F1000F40F0F6
:1014E000CF81394601233246284618930DF090FEED
:1014F000324609A928460BF0F9FC38220021204683
:1015000006F0C6FE169000283FF43DAF3B220021B6
:10151000204606F0BDFE169000283FF434AF0026AA
:1015200016A80DF0EFFD16AA314620468DF8926000
:101530008DF88F60ADF894601A9501F009FA314684
:101540000422204606F0A4FE3146074609900522F3
:10155000204606F09DFE09900246D4E90660236A03
:1015600064693946CDE90B0309A8CDE909462FF096
:10157000D7FB09AA16A928460DF04AFE03E7304614
:1015800002F082F916AF054638460DF0BBFD042285
:10159000002120461A9506F07BFE0522064609909A
:1015A0000021204606F074FE09900246D4E906E0C8
:1015B000D4F820C06369314605AECDE9070C30464A
:1015C000CDE9053E2FF0ACFB89220021204606F034
:1015D0005FFE0990002840F085803A4600212046B1
:1015E00001F0B6F93B222046002106F051FE099099
:1015F00028B19DF8D83043F020038DF8D83032461A
:10160000394628460DF004FE3EB0BDE8F081304674
:1016100002F03AF9892206460021204606F038FEFB
:101620000546169000287FF4AEAE014604222046FF
:1016300006F02EFE2946074616900522204606F0A3
:1016400027FE169002463946D4E90670D4F820C029
:101650006369CDE90B0C09A8CDE909372FF060FBD0
:1016600016A80BF039FC16AA2946204601F01EFEEA
:1016700029462046782206F00BFE09AA034616A941
:101680003046059321931A960BF030FC7BE6014619
:101690007822204606F0FCFD042280461690314652
:1016A000204606F0F5FD05220746169031462046F5
:1016B00006F0EEFD169002463946D4E90607636946
:1016C000D4F820C0CDE9163016A8CDE9187C2FF04B
:1016D00027FB6868424616A92FF0FCFC20BB0123BB
:1016E0002B7050E609A80BF0F7FB09AA2046002151
:1016F00001F0DCFD209B0D9509A932462846149384
:101700000BF0F4FB69E79DF8923013FB00F3C3F391
:1017100007234FF0000263F3070263F30F228DF8F3
:101720009530ADF892208CE648223146204606F0EE
:10173000AFFDC3B2FC2B0990D1D9702231462046AF
:1017400006F0A6FDC3B2FC2B0990C8D92922314668
:10175000204606F09DFDC3B209908BB12B22314685
:10176000204606F095FDC3B2FC2B0990B7D92A227A
:101770003146204606F08CFDC3B2FC2B0990AED951
:1017800028220021204606F083FD099048B1837A83
:101790003BB1C278FC2AA2D9012B02D0037AFC2BE0
:1017A0009DD900232B70EEE54A224FF4803120466C
:1017B00006F06EFD002809903A901FDC00238DF89A
:1017C000953036E649224FF48031204606F060FD20
:1017D0000990ADF89600C0F307408DF898000EE62A
:1017E00038224FF48031204606F052FD002809903F
:1017F000359019DC00238DF893300DE663224FF409
:101800008031204606F044FD582209903D904FF467
:101810008031204606F03CFD0990ADF8E400C0F3AD
:1018200007408DF8E60004E639224FF48031204667
:1018300006F02EFD0990ADF8D000C0F307408DF8FA
:10184000D200E9E509AA4FF48031204601F02EFDCF
:101850004FF0000801AA09A92846CDF82C800BF00A
:1018600045FB284601AA3946CDF860800DF0D0FC32
:1018700030462FF047FA00283FF43FAE01230B9388
:1018800009A9324628460BF031FB0123324639467E
:10189000284618930DF0BCFC2FE600BF2DE9F0415F
:1018A0004E6882B00C462EB3304605F099FA0746D2
:1018B000304605F08FFA1822804600213046B5697F
:1018C00006F0E6FC2B18A3EB0803A361013B019093
:1018D00023621A2230460021756906F0D9FC0544BE
:1018E000ED1B6B1EE3614BF676336561636202B0FC
:1018F000BDE8F08141F67603636202B0BDE8F08195
:1019000070B588B00D46044603F032F9EA06064683
:1019100023D4636A23EA05036362EB0711D42046EC
:1019200003F026F9864202D115F0C07F07D0204689
:1019300008F09CFD08B0BDE8704003F035B908B070
:1019400070BD204604F0BEFB204608F08FFD03F07A
:101950002BF9204603F028F9E1E704AA694620465E
:1019600006F07CF86946204604F094FB04A9204662
:1019700004F090FBCDE700BF10B508460C4630F0F0
:10198000E1FD002006F07EFC204608F019F8012059
:1019900006F078FC002120462EF0FAFFCCB1A368B7
:1019A000B3B15A6822B12046FFF778FBA3687BB138
:1019B000186820B133F062FFA36800221A6003F1B7
:1019C000080030F05FFDA06833F058FF0023A360EB
:1019D00010BDFEE7F0B589B00D46044603F0C8F827
:1019E000E907064627D4636A2B436362204603F067
:1019F000BFF8864206D115F0C07F03D1EB060BD4A9
:101A000009B0F0BD204608F031FD03F0CDF82046C6
:101A100003F0CAF8EB06F3D504AA6946204606F09F
:101A20001DF86946204604F035FB04A9204604F061
:101A300031FB09B0F0BD204604F044FB636A228DFF
:101A40002B4312076362D1D5A368002BCED05F6809
:101A5000002FCBD03846FFF719FC3846FFF772FC51
:101A60000028C3D004F02EFBC0E700BF038D8B42DB
:101A700000F0DB802DE9F04F8BB00A468A4619460C
:101A80000746ADF8263006F041FC0590002800F02E
:101A9000A180384604F016FBA7F828A0384606F0C7
:101AA00063FE97F82C30DB0740F1CD804FF42070B7
:101AB00033F0D0FE7B8D0790C3F3051213F47C7FC7
:101AC000039273D0FB6806934FF000086FEA0A0296
:101AD00007EE907A07EE10AA844604929E4644468A
:101AE000DEF80420049B90B21842C2F317027CD1A6
:101AF0009EF8073013F0020377D1069951F8381099
:101B00000E7A0F68FF2E00F09180B100002E6CD08D
:101B10000139394402E001339E4266D011F8015F79
:101B2000762DF8D157F8236035682F7802F47F01BD
:101B3000F7B1002C61D063464FF00009BB4605E0C9
:101B400009F10109A14503F1140356D093F808A047
:101B5000DA45F5D15F6807F47F0A8A45F0D1BFB254
:101B60008742EDD34C4548D015F8017F002FE0D1D6
:101B7000039B08F1010898456FD0202C0EF1080E48
:101B8000AED117EE907A17EE10AA079D002669686D
:101B9000BDF826200095534601F47F0101363846F2
:101BA00007F088FAA64205F11405F0D3079833F040
:101BB00065FE059B03F0FD03012B55D0059B022B11
:101BC0005FD00DF126022821384601F029FD0BB027
:101BD000BDE8F08FA7F828A00DF12602282138468D
:101BE00001F01EFD0BB0BDE8F08F039B08F101086A
:101BF000984532D00EF1080E72E704EB8407F368C3
:101C00002CF827300CEB870733697B80B368FB60C7
:101C10002B783B7273683B617A6015F8017F013461
:101C2000002FA5D0202C84D1A2E770473B78B9467D
:101C300023B9DAE719F8083F002BD6D0762BF9D173
:101C4000D9F8046070E7384604F03CFA059B022B93
:101C5000B7D1384601F016FCB3E717EE907A17EECD
:101C600010AA002C91D1A1E73846FF224FF4702131
:101C700006F09EFF0DF126022821384601F0D0FC27
:101C8000A5E7384604F01EFAE3E700BF10B50146A9
:101C9000044800F0ABFC20B1044600F009FD2046EA
:101CA00010BDFEE70C7E05080A4620B1436A9A4340
:101CB00002D0FFF78FBEFEE7704700BF18B1436A3E
:101CC000194201D17047FEE7FFF71ABE60B12DE956
:101CD000F04F038D0D46194335EA030387B00446E0
:101CE00003D107B0BDE8F08FFEE7FFF7BFFE636AE0
:101CF0005802F6D5204608F005FC0028F1D0002750
:101D000082463946204608F0B5FB064650B1038DA1
:101D100045EA030135EA030304D0FFF7A7FE736A1F
:101D2000590203D40137BA45EBD1DAE7304608F05F
:101D3000E9FB01900028F5D0CDE903A74FF0000B97
:101D400005945946304608F095FB804658B1038DFE
:101D500045EA030135EA030305D0FFF787FED8F80B
:101D600024305A0208D4019B0BF1010B5B45E8D1EA
:101D7000DDE903A7059CD5E7404608F0C3FB0290C8
:101D80000028F0D04FF000094946404608F072FBA9
:101D9000044650B1038D45EA030135EA030304D03C
:101DA000FFF764FE636A5B0205D4029B09F1010937
:101DB0004B45E9D1D7E7204608F0A4FB824600282E
:101DC000F3D000273946204608F054FB0137294656
:101DD00008B1FFF77BFFBA45F4D1E6E778B12DE90A
:101DE000F04F038DCA43894602EA0301934387B04B
:101DF00004461FFA82FA03D107B0BDE8F08FFEE770
:101E0000FFF734FE636A5802F6D5204608F07AFBE5
:101E10000028F1D0CDF800904FF0000881464146EF
:101E2000204608F027FB054650B1038D0AEA03015E
:101E300033EA0A0304D0FFF719FE6B6A590204D48F
:101E400008F10108C145EAD1D6E7284608F05AFB57
:101E500001900028F4D0CDE9039800270594394675
:101E6000284608F007FB064650B1038D0AEA030135
:101E700033EA0A0304D0FFF7F9FD736A5A0207D464
:101E8000019B0137BB42EAD1DDE90398059CD7E706
:101E9000304608F037FB02900028F1D04FF00009DF
:101EA0004946304608F0E6FA044650B1038D0AEA86
:101EB000030133EA0A0304D0FFF7D8FD636A5B022B
:101EC00005D4029B09F101094B45E9D1D8E7204629
:101ED00008F018FB83460028F3D04FF00008414675
:101EE000204608F0C7FA08F10108009908B1FFF789
:101EF00075FFC345F3D1E4E72DE9F041084688B00A
:101F00000D4630F011FB0446284630F009FB012C49
:101F10005BD0033C0646302C54D8DFE814F0920125
:101F20005300530053005300530053005300630108
:101F30005F015300470153005300FF005300DB00D3
:101F4000D90053005300D30083007C005C00620082
:101F500053005C005C0053005C0053005300A90078
:101F600053005300530053005300530053008A00A2
:101F700053009E00530053005300530031006C0087
:101F80001222002106F084F9842204460021304602
:101F9000049406F07DF983B204900BB9E4B214B155
:101FA000304602F001FE304608F0ACFA054648B172
:101FB0000024B3681B6853F82400013402F0F4FDD8
:101FC000A542F6D108B0BDE8F081802108B0BDE897
:101FD000F041FFF77BBE284608B0BDE8F041FFF7AF
:101FE000BDB9002101F082F90146284608B0BDE8DC
:101FF000F04101F069BC08F085FA05460028E1D0FF
:102000000024B3681B6853F82400013402F0CCFDAF
:10201000A542F6D1D6E74021304608B0BDE8F041F0
:10202000FFF7DCBE4021304608B0BDE8F041FFF7C5
:102030004DBE1222002106F02BF984220446002115
:102040003046049406F024F983B204901BB9E4B23C
:10205000002C00F0F880304605E090F82A3043F07C
:10206000020380F82A3008B0BDE8F04102F09CBDC0
:1020700030B390F82B30DB09A4D0038D5A07A1D5DB
:1020800008F0F4F9074600289CD008F03BFA804697
:10209000002897D000252946384608F0EBF98642FB
:1020A000044605F1010508D058B190F82B30DB0942
:1020B00003D0038D5B0700F10B81A845EBD181E7CD
:1020C000FEE7FEE78021FFF789FE4FF48071A3E76A
:1020D0003821A1E708B3436A5B0500F1C580B06809
:1020E00000B14068FFF734F904462BF059F9002895
:1020F00000F0E0802BF05AF9022800F0B2800428AA
:1021000015BF2821382108231823002C8BD119460C
:102110003046FFF7DBFD20217EE7FEE7002844D0B4
:10212000436A180700F1A48003F40163B3F5016F5B
:102130007FF448AF304600F033FB00287FF442AF15
:10214000304604F04DFE0746304604F063FE044678
:10215000284601F0A1FB122800F0C680112800F0EB
:10216000D680132800F0E18014287FF42BAF30468E
:1021700004F01CFE820700F0CA80002F02DC002C55
:1021800040F3C580304604F019FE0446304602F0A4
:10219000F7FD011EB8BF03310022A4EBA1013046B8
:1021A00008B0BDE8F04105F097BAFEE74FF4807142
:1021B000FFF714FE304604F0EFFD02287FF402AF73
:1021C00004AA6946304605F049FC6946304603F0EA
:1021D00061FF04A9304603F05DFFF3E64FF4807120
:1021E000304621E78021FFF7F9FD284630F0A0F9BD
:1021F0002BF04AF900287FF4E5AE0EB3736A190795
:102200007FF5E0AE338D13F004045CD096F82B30EC
:10221000DB097FF4D7AE04213046FFF7DFFD328DB6
:10222000231E18BF0123C2F3800293423FF4CAAEBB
:1022300000222321304608B0BDE8F04101F0F0B99A
:10224000FEE78021E8E6304602F0DAFD00287FF460
:1022500002AF304602F0FAFD00283FF4B3AE30463C
:1022600001E73821182350E7012105F0D7FB36E7B5
:10227000284601F011FB20F00203112B358D044696
:102280001CD0142802D012287FF49CAE96F82B3074
:10229000DB097FF497AE04213046FFF79FFD0A2C3F
:1022A0003FF490AE338DC5F38005C3F380039D42A8
:1022B000BED187E6284601F0D5FA1BE70421304657
:1022C000FFF704FDEEE704213046FFF7FFFCA6E729
:1022D0000421FFF783FD00222046232101F0A0F90D
:1022E00001283FF4EAAE6DE6304604F06DFD044689
:1022F000304602F04BFD011EB8BF0331002204EB53
:10230000A101304608B0BDE8F04105F0ADBA304655
:1023100004F05AFD0446304602F038FD011E00DA92
:1023200003310022A4EBA101EBE7304604F03EFDAF
:102330008107D9D0002F01DC002CD5DD304604F018
:102340003DFD0446304602F01BFD011EB8BF0331BF
:10235000002204EBA10122E72DE9F04F044685B0ED
:102360000E464AB138B1038D194336EA03032AD128
:1023700005B0BDE8F08FFEE720B3038D1546CA43D4
:1023800002EA030193431FFA82F8F1D0FFF76EFBD4
:10239000636A5902ECD5204608F0B4F8814600285B
:1023A000E6D001962946204608F064F8074628B191
:1023B000038D08EA030133EA080320D10135A9455A
:1023C000F0D1D5E7FEE7FFF751FB636A5A02CFD59C
:1023D000204608F097F880460028C9D000273946E3
:1023E000204608F047F8054628B1038D46EA030168
:1023F00036EA030329D10137B845F0D1B8E7FFF732
:1024000035FB7B6A5A02D9D5384608F07BF8029032
:102410000028D3D04FF0000A03945146384608F004
:1024200029F8044650B1028D08EA020132EA080296
:1024300004D0FFF71BFB626A530241D4029B0AF1EE
:10244000010A5345E9D1039CB8E7FFF70FFB6B6A1C
:102450005B02D0D5284608F055F801900028CAD074
:102460004FF000094946284608F004F8824658B162
:10247000028D46EA020136EA020205D0FFF7F6FABB
:10248000DAF82420500205D4019B09F101094B45DB
:10249000E8D1B0E7504608F035F802900028F3D0B4
:1024A0004FF0000B5946504607F0E4FF0BF1010BCB
:1024B000314608B1FFF70AFC029B5B45F2D1E3E726
:1024C000204608F01FF806460028B7D04FF0000B52
:1024D0005946204607F0CEFF0BF1010B019908B1D8
:1024E000FFF77CFC5E45F3D1A8E700BF28B1436A43
:1024F00099430CBF012000207047FEE728B1436AD2
:10250000194214BF012000207047FEE708B1008D7A
:102510007047FEE718B1806800B140687047FEE779
:1025200020B1836810B504460BB110BDFEE734201E
:1025300033F090F9A06030B1438E43F4707343F0F0
:102540000303438610BDFEE720B10068401AB0FACD
:1025500080F04009704700BF006848B1884202D14E
:1025600005E0814203D000680028FAD170470120BD
:10257000704700BF2DE9F0470F683E680C460546DE
:102580005EB3D6F800800E60B8F1000F1FD0D8F807
:102590000090C1F80080B9F1000F11D0D9F80020E7
:1025A000C1F8009022B10A60FFF7E4FFC4F8009080
:1025B000D9F8043013B1214628469847C4F8008062
:1025C000D8F8043013B1214628469847266073682E
:1025D00013B121462846984727607B6823B12146DE
:1025E0002846BDE8F0471847BDE8F08770B50D46AE
:1025F000064650B12D4C034601E01B682BB11A6A08
:1026000014EA0200F9D0C2F30F1033F023F90446A4
:10261000B0B1C0E90065ADB1AE68002E38D0318EE2
:102620003068013189B23186890033F031F9AA6806
:102630003060138E126803F18043013B42F823405F
:10264000204670BD09F05EFB064650B3D0F8CC02C0
:1026500018B3D6F8E8320133990033F019F9B0B164
:10266000D6F8E832C6F8CC025A1C0025C6F8E82293
:1026700040F82340C4E90555284609F053FB0138CA
:10268000E061284609F060FB01382062D8E7FEE7E8
:102690002846FFF745FFAE68C1E7C6F8E8520421B7
:1026A000DBE7204633F0EAF82C46C9E7F0FF0F00DD
:1026B000002862D0F8B5044602F076FA002005F052
:1026C000E1FD204636F06CFC25682E68BEB1376807
:1026D000266077B13B6827602BB1236021462846EE
:1026E000FFF748FF27607B6813B1214628469847CB
:1026F0002660736813B121462846984725606B68A9
:1027000013B1214628469847012005F0BBFDFF2262
:102710004FF47021204606F04BFA204602F0BCFB35
:10272000FEF7B6FC58B1226812B908E0126832B15F
:1027300092F8203013F00C03F8D0042B13D020466D
:1027400007F094FE054668B122462B2100F068FF91
:10275000224628462C2100F063FF2046BDE8F840C1
:1027600003F0B0BCF8BD2146FEF73AFD204607F065
:102770007DFE05460028E7D1F4E7704710B5044612
:10278000006804E098472368186838B120608368BF
:102790002146002BF6D100680028F7D110BD00BFFC
:1027A000006810B90CE0006848B190F8203013F0D0
:1027B0000303F8D0A3F10100B0FA80F0400970479C
:1027C000704700BF70B586B09DF828400193002A7D
:1027D00039D0936C92F84B50039309BB3CB12DBB9D
:1027E0000198214606B0BDE870402FF0ABB9002D2E
:1027F000F6D08DF80F50039B05939DF814309DF88B
:1028000015109DF81620204663F3070061F30F2092
:102810009DF8173062F3174063F31F6006B070BD78
:102820001A4607F023F90390050ED7E721460198D1
:102830002FF088F98DF80F500146039806B0BDE8D7
:1028400070402FF0E1BB07F09DF90390050EC5E73E
:1028500070B586B0019352B31346966C93F849E075
:1028600092F8482093F84AC093F84B40A9B97146B2
:1028700060462FF0DFF9C0F30722C0F307438DF85D
:102880000D208DF80C008DF80E300199039822462A
:1028900006B0BDE870402FF0CFBA324607F0E6F838
:1028A000C2B2C0F3072EC0F3074C040EDFE707F0F7
:1028B00069F9C2B2C0F3072EC0F3074C040ED6E785
:1028C00070B5144682B0942205460E4605F0E0FC31
:1028D000C3B20190E3760BB902B070BD31469022CD
:1028E000284605F0D5FCE36960F31303E361314644
:1028F00001909122284605F0CBFC3146A082019040
:102900009222284605F0C4FC3146E08201909322D1
:10291000284605F0BDFCC0F307432083A376A369D6
:102920002269019031462846FFF792FFC0F3072342
:102930002076C0F307406376A0769522314628467C
:1029400005F0A6FCA37F60F30613A37702B070BD69
:102950002DE9F0411369C2E900018AB01446064628
:102960000D46002B4FD000295CD193F84E70782291
:102970002946304605F08CFC94F83A300990A06264
:10298000002B40F0918194F83B30002B40F04A81BD
:1029900094F83C30002B40F0068194F83730002B3F
:1029A00040F09D8094F83D30002B46D1FC2F22D87A
:1029B00094F83A3013FB07F31B1284F83A3094F87A
:1029C000373013FB07F31B1284F8373094F83B3091
:1029D00013FB07F31B1284F83B3094F83D3013FBD4
:1029E00007F31B1284F83D3094F83C3013FB07F3D7
:1029F0001B1284F83C302246294630460AB0BDE816
:102A0000F041FFF75DBF05F017FE0746002DAED081
:102A1000022FACD8002384F83730C4F83A300AB01B
:102A2000BDE8F081702293F84E8005F031FCC7B20A
:102A300008FB07F709903F0AEAE74A222946304691
:102A400005F026FC0990C4F890000028AED094F858
:102A50003D30022BAAD951222946304605F018FCF8
:102A6000C3B2022B099084F83D309FD961222946D8
:102A7000304605F00DFC6222C4F894000990294606
:102A8000304605F005FC6322C4F8980009902946F9
:102A9000304605F0FDFB5822C4F89C0009902946F9
:102AA000304605F0F5FB294602460990304605F010
:102AB00029FC0890C0F307408DF82200089B22698A
:102AC00029463046FFF7C4FEC0F3072384F88C0084
:102AD000C0F3074084F88D3084F88E0066E730221A
:102AE0002946304605F0D4FB0990E06200283FF407
:102AF00059AF31222946304605F0CAFB0990C0B2D1
:102B0000022884F837007FF64DAFE06A0BF068F8D2
:102B1000022800F0608134222946304605F0B8FBD7
:102B2000294602460790304605F0ECFB0990ADF8C7
:102B30001800C0F307408DF81A00322229463046AB
:102B400005F0A6FB0990C0B20090069B22692946B9
:102B50003046FFF737FE030EC2B2C0F307210890DC
:102B600084F83830C0F307402FF064F8C0F307232F
:102B700084F83400C0F3074084F8360084F8353018
:102B800033222946304605F083FB0990003818BFF0
:102B9000012084F839006A222946304605F078FB86
:102BA00009906067FEE640222946304605F070FB3A
:102BB0000990C4F8840000283FF4EFAE4222294671
:102BC000304605F065FB0990C0B2022884F83C004D
:102BD0007FF6E3AE43222946304605F059FB4122F9
:102BE000C4F8880009902946304605F051FB294673
:102BF0000246304605F086FB0990C0F307408DF889
:102C00002600099B226929463046FFF721FEC0F3C2
:102C1000072384F88100C0F3074084F8823084F8E9
:102C20008300BAE638222946304605F031FB099088
:102C3000E06700283FF4ACAE3A222946304605F062
:102C400027FB0990C0B2022884F83B007FF6A0AEB3
:102C50003C222946304605F01BFB94F88030099051
:102C600060F3040384F8803039222946304605F0A9
:102C70000FFB29460246304605F044FB0990C0F39D
:102C800007408DF82600099B226929463046FFF748
:102C9000DFFDC0F3072384F87800C0F3074084F811
:102CA000793084F87A0073E648222946304605F0E8
:102CB000EFFA0990C0B2022884F83A007FF663AEBA
:102CC00049222946304605F0E3FA29460246029099
:102CD000304605F017FBADF81C000990C0F3074023
:102CE0008DF81E00079B226929463046FFF7B0FD8C
:102CF000C0F3072384F83E00C0F3074084F8400087
:102D000084F83F3028222946304605F0C1FA099060
:102D100010B1C37A1A0757D129222946304605F047
:102D2000B7FA94F84F30099060F3030384F84F30FA
:102D30001B073FF428AEE38FA4F8443094F84030EA
:102D400084F846302C222946304605F0A1FA29465F
:102D50000246304605F0D6FAADF820000990C0F3DF
:102D600007408DF82200089B226929463046FFF76C
:102D70006FFDC0F3072384F84900C0F3074084F8CF
:102D80004A3084F84B002D222946304605F080FA5F
:102D90002E2284F8480009902946304605F078FA3A
:102DA0002A2284F84D0009902946304605F070FA31
:102DB0002B2284F8470009902946304605F068FA2E
:102DC000099084F84C00DEE50146302204F144000D
:102DD00032F004FDD7E54D222946304605F058FA79
:102DE0005C22206309902946304605F051FA2946B5
:102DF00002460690304605F085FA0990C0F3074078
:102E00008DF82600099B226929463046FFF720FDF0
:102E1000C0F3072384F83400C0F3074084F835304A
:102E200084F83600B7E600BFF0B5C2E9000185B00E
:102E30001446542206460D4605F02AFAC3B2022B68
:102E4000039084F8663001D805B0F0BD21690029EF
:102E500072D0002D5FD191F84E00FC2807D813FBEB
:102E600000F3C3F3072384F86630022BECD929461C
:102E70005C22304605F00CFA2946024603903046A3
:102E800005F040FAC0F30743ADF804008DF80630B2
:102E9000019B2269029029463046FFF7D9FCC0F316
:102EA000072384F83800C0F3074084F8393084F8E9
:102EB0003A0029466622304605F0EAF929462064A0
:102EC00002906722304605F0E3F92946E06302905C
:102ED0006E22304605F0DCF994F86830029060F319
:102EE000020384F8683029464D22304605F0D0F9B7
:102EF0002946606302906522304605F0C9F92246F2
:102F0000034684F8640029463046029305B0BDE8C4
:102F1000F040FFF7D5BC91F84E707022294630463C
:102F200005F0B6F90390C0B207FB00F0000AFC28D8
:102F300094F8663093D998E72946304605F07CFB33
:102F4000F5E700BFF0B5C2E9000187B01446502292
:102F500006460D4605F09CF9C3B2022B059084F895
:102F60005C3001D807B0F0BD2169002900F08680EF
:102F7000002D72D191F84E00FC2807D813FB00F306
:102F8000C3F3072384F85C30022BEBD94FF4807332
:102F9000002206F11407C4E90F23636438462EF0BB
:102FA00065FC00EBD0735B10236538462EF064FCA3
:102FB00000EBD0704010592260652946304605F07C
:102FC00067F9294602460590304605F09BF94E22E6
:102FD000C0F307430490ADF80800294630468DF849
:102FE0000A3005F055F9C3B200932269029B0490A0
:102FF00029463046FFF7E6FB030EC2B2C0F30721B5
:1030000084F85B30C0F307402EF014FEC0F30723B2
:1030100084F85800C0F3074084F85A0084F8593007
:103020006A222946304605F033F9049020663DB9FE
:1030300022462946304607B0BDE8F040FFF740BCC5
:103040007A222946304605F023F994F85D30049041
:1030500060F3030384F85D30EAE791F84E70702264
:103060002946304605F014F90590C0B207FB00F080
:10307000000AFC2894F85C3080D985E72946304660
:1030800005F0DAFAF5E700BFF0B5C2E9000185B056
:103090001446522206460D4605F0FAF8C3B2022B3A
:1030A000039084F8503001D805B0F0BD21690029A3
:1030B0006BD0002D58D191F84E00FC2807D813FB97
:1030C00000F3C3F3072384F85030022BECD94B22D2
:1030D0002946304605F0DCF8039060640028E3D010
:1030E0005A222946304605F0D3F829460246039075
:1030F000304605F007F9C0F30743ADF804008DF83A
:103100000630019B2269029029463046FFF7A0FB5A
:10311000C0F3072384F84000C0F3074084F842005E
:1031200084F8413064222946304605F0B1F8029017
:10313000A06478BB29466922304605F0A9F8034609
:10314000021E029394F8513018BF012262F300036B
:1031500062F3410329463046224684F8513005B0D7
:10316000BDE8F040FFF7ACBB91F84E7070222946E5
:10317000304605F08DF80390C0B207FB00F0000A5E
:10318000FC2894F850309AD99FE72946304605F03C
:1031900053FAF5E768222946304605F079F802909F
:1031A000E064C7E7F0B5C2E9000185B014464C22DF
:1031B00006460D4605F06CF80390E06208B905B0CC
:1031C000F0BD53222946304605F062F8C3B2022B07
:1031D000039084F84630F2D92169002960D0002D8F
:1031E00044D191F84E00FC2850D929465B22304644
:1031F00005F04EF8294602460390304605F082F865
:10320000C0F30743ADF804008DF80630019B226936
:10321000029029463046FFF71BFBC0F3072384F8D2
:103220002800C0F3074084F8293084F82A00294692
:103230006022304605F02CF82946206402906F2267
:10324000304605F025F80346021E029394F84730F5
:1032500018BF012262F3000329463046224684F853
:10326000473005B0BDE8F040FFF72ABB91F84E703B
:1032700070222946304605F00BF80390C0B207FBD8
:1032800000F0000AFC2894F8463005D813FB00F340
:10329000C3F3072384F84630022BA6D805B0F0BD4F
:1032A0002946304605F0C8F9ECE700BF70B5144672
:1032B00082B0C2E90001882205460E4604F0E8FF0C
:1032C0008A22A06201903146284604F0E1FFE36AB9
:1032D000019084F830000BB102B070BD7822314605
:1032E000284604F0D5FFE06202B070BDF0B54A2276
:1032F00083B004460D4604F0CBFF019040BB00268E
:1033000040222946204604F0C3FF074601900028CA
:1033100040F0888094222946204604F0B9FFC3B2C9
:103320000190002B43D129460422204604F0B0FF2F
:103330000522074629462046019704F0A9FFB84216
:10334000B8BF38460028C8BF3618304603B0F0BDB5
:10335000064651222946204604F09AFFC3B2022BAA
:103360000190CCD963222946204604F091FF06EB58
:10337000D676761001366122064401902946204611
:1033800004F086FF6222074601902946204604F099
:103390007FFF002FB8BF7F4200280190B8BF404296
:1033A000B842ACBF3618F61926EAE676A8E79122AD
:1033B0002946204604F06CFF002801904FF091024E
:1033C0002946204643DD04F063FF01900746922220
:1033D0002946204604F05CFF002801904FF092023D
:1033E0002946204649DD04F053FF0190874233DD32
:1033F00091222946204604F04BFF002801904FF00F
:1034000091022946204633DD04F042FF0190074631
:1034100090222946204604F03BFF019001303844B9
:10342000064480E742222946204604F031FF0190FD
:10343000C0B202287FF66EAF43222946204604F030
:1034400027FF0744BE420190B8BF3E4662E704F042
:103450001FFF01904742BAE792222946204604F016
:1034600017FF002801904FF0920229462046CBDC3E
:1034700004F00EFF01904742CAE704F009FF0190F3
:103480004042B3E7A0B130B5856883B0044605B1CA
:10349000ED6A002301AA1B212046019300F0C0F829
:1034A000A268019B52B1D3629D4202D103B030BDEC
:1034B000FEE7204602F006FE03B030BD002BF3D03D
:1034C0002046FFF72DF8A268019BECE7806800B169
:1034D000C06A7047806818B190F83300C0F381006B
:1034E000704700BF2DE9F041054629F059FF28B18A
:1034F0002B7E13F0020414D1DE070BD42F68BE68B4
:1035000006B108360122294630462EF033FF012845
:10351000044602D02046BDE8F0812C7E14F002045F
:1035200003D001242046BDE8F0812B68186810B94B
:103530000DE0006858B1C268002AFAD00023EB60A1
:10354000294690472B7EDA07E4D49C07E9D4002271
:10355000294630462EF00EFF01280446DAD12B7E94
:103560009807DED4286806F081FF2B7E064670B1EE
:1035700059070CD4AB682C3B012B3CD82E60284655
:10358000FFF7B0FF012818BF0446C3D12B7E1B07ED
:10359000C7D428684FF40011FEF7A8FF0028C0D058
:1035A000AB68162BB6D01A3B1B2B04D81B4A22FA49
:1035B00003F3DE07AED4384606F0A4FF2B7E43F0BB
:1035C000040380462B76002670B9AAE7384606F039
:1035D00051FF034628462BB12B60FFF783FF0128DC
:1035E000044697D1B0459CD02B7E9807314606F112
:1035F0000106EBD595E728684FF48041FEF776FF8A
:103600000028C3D0AB68162BC0D01A3B1B2BB5D8F3
:10361000024A22FA03F3DA07B0D5B7E7FF090F0B26
:10362000F0B589B080B39DF81830029123F00F03F4
:10363000CDE900000024684604928DF81830039408
:103640002EF04AFE29F0ACFE30B19DF8183013F090
:10365000020412D1DD0711D4009EB56805B108350A
:103660000122694628462EF085FE0128044605D130
:103670009DF8184014F002040AD0012468462EF088
:1036800033FE204609B0F0BD0124204609B0F0BD4C
:10369000009B186810B90EE0006860B1C368002B89
:1036A000FAD000220392694698479DF81830DA074D
:1036B000E4D49807E1D40022694628462EF05AFE49
:1036C00001280446DAD19DF818309907D5D400981E
:1036D00006F0CCFE9DF81830054678B15A070DD497
:1036E000029B2C3B012B40D868460095FFF7FAFE61
:1036F000012818BF0446C1D19DF818301F07BCD45B
:1037000000984FF40011FEF7F1FE0028B5D0029B9F
:10371000162BB3D01A3B1B2B04D81D4A22FA03F3F5
:10372000DD07ABD4304606F0EDFE9DF8183043F0CF
:10373000040307468DF81830002570B99DE7304620
:1037400006F098FE034668462BB10093FFF7CAFEC9
:103750000128044692D1AF428FD09DF818309807C7
:10376000294605F10105EAD587E700984FF4804125
:10377000FEF7BCFE0028BFD0029B162BBCD01A3B24
:103780001B2BB1D8024A22FA03F3DB07ACD5B3E70F
:10379000FF090F0B10B50C4690B1006810B90DE091
:1037A000006858B1C368002BFAD00022E2602146BD
:1037B0009847207EC04300F0010010BD012010BDDD
:1037C0000B681868EAE700BF80B12DE9F0410446B4
:1037D0000D4616461F46FEF7A3FEA0683B4632463E
:1037E00029460830BDE8F0412EF0CEBDFEE700BF0F
:1037F00020B1806818B108302EF0E4BDFEE77047B4
:1038000020B1806818B108302EF0E0BDFEE77047A7
:10381000D0B1F8B505468068B8B108300E462EF034
:10382000D1FD90B1441E10D40027AB68214603F1AE
:1038300008003BB12EF0CAFD10B10368B34207D0B7
:10384000013CF2D23846F8BDFEE700273846F8BD05
:10385000A868214610B108302EF0C8FD0137EFE707
:103860002EF060BE83685A1E032A06D9192B06D88B
:10387000044A22FA03F3DB0701D52EF059BE0020DB
:10388000704700BF00DF3B0383681C3B052B01D959
:10389000002070472EF04CBE08B58368112B01D074
:1038A000002008BD2EF044FE0028F9D0006808BDB5
:1038B00008B58368122B01D0002008BD2EF038FE19
:1038C0000028F9D0006808BD83681B2B00D0704722
:1038D00010B50C462EF02CFE0368A342B8BF234659
:1038E000036010BD08B58368282B01D0002008BDF7
:1038F0002EF01EFE0028F9D0008808BD2DE9F04FFB
:1039000088468BB0002191469C221E46054604F055
:10391000BFFC9822074608900021284604F0B8FC16
:103920009922044608900021284604F0B1FC012C9D
:10393000A246B8BF4FF0010A012803460890BB46D3
:10394000B8BF012317B9B4F5807F3BD09A2200217C
:103950002846049304F09CFC9B22089000212846F2
:1039600004F096FC089A049B099002F0C041B1F162
:10397000005F044648D004F0C041B1F1005F25D09B
:1039800069691144AA6908912244099276B90093A1
:1039900086F0010608AB0193029653465A46494603
:1039A00040462DF071FE0BB0BDE8F08F4FF6FF7270
:1039B0000AEB0201C7F1000B1A44B1FBFAFAB2FBA1
:1039C000F3F3E4E7B0F5807FC0D1ECE724F0C04129
:1039D0006FF060408142D3D0B1F1805FA4BF6FF03F
:1039E0007042511A05F11400CDE904132DF044FF83
:1039F0000499154A059B01FB00F082FB0012C017D9
:103A0000C0EB6214089ABBE722F0C0416FF060403F
:103A10008142B0D0B1F1805FA4BF6FF07042511A03
:103A200005F11400CDE904132DF020FF0499064A96
:103A3000099C059B01FB00F082FB0012C017C0EB44
:103A40006212089297E700BF1F85EB51F0B50D4653
:103A5000D1E9021389B02A686E68009201330131FE
:103A6000CDE90223CDE9061304910196059604469B
:103A700000284ED02046FFF72DFD0346022B20469E
:103A80003BD006F0F3FC04460028F3D1069C0498D2
:103A9000029A009F079B059EDDF80CC0DDF804E04C
:103AA00084422146A8BF01468442B8BF0446B342BF
:103AB0001846A8BF3046B342B8BF33466045A8BFDA
:103AC00060466345B8BF63467045A8BF70467345FE
:103AD000B8BF7346BA42EB601346A8BF3B46BA4232
:103AE000B8BF3A468B42A8BF0B46A242B8BF224697
:103AF00068602B60AA6009B0F0BD0023042269460B
:103B0000FFF7FCFE204606F0B1FC04460028B1D1C8
:103B1000BCE7B6469C460C461746C8E7F0B589B0E8
:103B20000E46044606F070FC054606F075FC074696
:103B300008F0DAF9854217D0384608F0E1F98542F5
:103B400012D0384608F000FA85420DD0384608F009
:103B5000E3F9854208D0384608F0EAF9854203D0F7
:103B60000027384609B0F0BD2046FFF7AFFCA36937
:103B70000193E3690293236A039302466369009306
:103B8000014668462DF0CCF86A46314630462DF0A5
:103B9000E7F807460028E3D023469A682AB192F84E
:103BA000332002F00C02082A44D05B68002BF4D1C9
:103BB000204606F05BFC04460028D2D004AD01216B
:103BC0002046FEF793FC0028CAD104F114030FCB62
:103BD00085E80F004FF480112046FEF787FCD8B926
:103BE00023469A682AB192F8332002F00C02082A80
:103BF0001BD05B68002BF4D12A46314630462DF0AD
:103C0000AFF80028ACD0204606F030FC044600286F
:103C1000D5D1384609B0F0BD2046FFF757FC024623
:103C2000014628462DF07CF8DAE729462046FFF7C2
:103C30000DFFE1E731462046FFF708FFB8E700BF78
:103C4000F0B587B0536803930C4693680493054618
:103C5000D36812680292012120460593FEF746FCC4
:103C600018B10026304607B0F0BD02AF39462046F5
:103C7000FFF754FF0028F4D0A3682BB193F833303A
:103C800003F00C03082B2CD0204606F0C5FB394668
:103C900007F0DAF806460028E3D0D5F8D802144930
:103CA0006A46CDE9004706F049FCD5F8E00218B1B4
:103CB0000F496A4606F042FCD5F8D0020C496A4624
:103CC00006F03CFCD5F8D40209496A4606F036FCF9
:103CD000D5F8DC0206496A4606F030FC304607B0EB
:103CE000F0BD0522114638462DF01AF8CCE700BF8A
:103CF000F53C00080B6883424CD02DE9F0430446A4
:103D000087B00D46FFF7E2FBA3690393E3690493D1
:103D1000236A0593024663690293014602A82CF0C8
:103D2000FFFF23469A682AB192F8332002F00C0272
:103D3000082A31D05B68002BF4D1686802A92DF005
:103D4000B3F918B9012007B0BDE8F0832046FEF7AB
:103D5000DDFB638DC04313F47C7F1FFA80F8C3F34F
:103D6000051218BF002513D0E76807EBC5064FEA18
:103D7000C509F3795B0708D4736813EA080F04D107
:103D800057F809004368002B11DB01359542EBD34E
:103D90000020D8E70120704702A92046FFF756FE11
:103DA000686802A92DF080F90028CBD0CEE701AADF
:103DB00088212FF0FBFF002831D030684368002BAA
:103DC00042DB2046FFF782FBD4E90612024404924C
:103DD000226A024405926269091A03460391D21AC3
:103DE000012120460292FEF781FB0028AAD102A9F8
:103DF0002046FFF793FE0028A4D0A3682BB193F8C8
:103E0000333003F00C03082B18D0204606F004FBD7
:103E100002A907F019F8012007B0BDE8F08357F8B0
:103E200009004368002B01AA04DA94212FF0BEFF99
:103E30000028C6D1628DC2F30512A6E705221146FD
:103E400002A82CF06DFFE0E701AA94212FF0AEFF4D
:103E5000B7E700BFF0B51A2283B00021044604F092
:103E600017FA3822064600212046019604F010FA7F
:103E70003C22054601900021204604F009FA002169
:103E8000420701904FF01B02204648BF761904F00C
:103E9000FFF93822054601900021204604F0F8F988
:103EA0003C22074601900021204604F0F1F9030767
:103EB000019004F1140048BFED192DF0D7FC801BD0
:103EC000401B03B0F0BD00BFF0B5182283B0002145
:103ED000044604F0DDF9382206460021204601960A
:103EE00004F0D6F93C22054601900021204604F05A
:103EF000CFF90021820701904FF01902204648BFF8
:103F0000761904F0C5F938220546019000212046B3
:103F100004F0BEF93C22074601900021204604F03F
:103F2000B7F9C307019004F1140048BFED192DF053
:103F3000A3FC801B401B03B0F0BD00BFF0B50D46D5
:103F4000D0E90736D0E9051283B0AB60C5E90012AD
:103F5000EE601A220021044604F09AF9382206463F
:103F600001900021204604F093F93C22074601907D
:103F70000021204604F08CF92B680190400748BFCF
:103F8000F61933442B601B220021204604F080F9EF
:103F90003822064601900021204604F079F90021DC
:103FA000074601903C22204604F072F9AB6801906C
:103FB000010748BFF6199B1BAB6018220021204661
:103FC00004F066F93822064601900021204604F0EC
:103FD0005FF93C22074601900021204604F058F981
:103FE0006B680190820748BFF61933446B60192251
:103FF0000021204604F04CF93822064601900021A9
:10400000204604F045F93C2207460021204601974E
:1040100004F03EF9C307EB6848BFF6199B1BEB6041
:1040200003B0F0BD2DE9F04F044687B002F0CCFE9E
:10403000A36801900BB100225A6218220021204689
:1040400004F026F93822002104900090064620460C
:1040500004F01EF90021049005463C22204604F09D
:1040600017F98107049002D533462B440093192297
:104070000021204604F00CF9382206460490002165
:10408000204604F005F93C22054604900021204614
:1040900004F0FEF8DFF83881C2074FF0350104AABA
:1040A0004FF00009204648BF7619CDE90489FFF793
:1040B000B7FA009A059B134403EB06080022444B11
:1040C000039303A920462BF0B3F8054678B1039B70
:1040D000A26812B10199494251623D4A934202D00D
:1040E0009845B8BF9846404607B0BDE8F08F2046D7
:1040F00006F008FA824690B3DFF8DCB0A3681B68CC
:1041000053F8257059463846FEF7F8F920BB97F862
:104110002B30DB0620D42F493846FEF7EFF98146D5
:1041200018BB384606F0A2F9F8B14946842204F0DB
:10413000AFF8049080B2C0B13B6AA2699B1A03F148
:10414000010921220021384604F0A2F8039B0490C3
:10415000484498421DDA03930135AA45CED1039B0A
:104160001B4A93421ED03344B2E712220021384644
:1041700004F08EF810F0FC0F0490DDD01122002125
:10418000384604F085F88146049090B1DFF84090FD
:10419000D7E738462122002104F07AF8049009EB91
:1041A0000003D8E7A268002A9DD0019B5B425362BE
:1041B00099E707F114002DF05FFB009B4946202290
:1041C00000EB0309384604F063F804908144B8E733
:1041D000010000E0010006000100040070B50C467B
:1041E000134682B02246002105461C4604F050F8D2
:1041F0006FF0404290422FD000F0C042B2F1005F19
:1042000001D002B070BD20F0C0446FF060439C420A
:10421000F7D0284606F02AF938B3FFF755FEB4F177
:10422000805FA4BF6FF070431C1B134A04FB00F3B4
:1042300082FB0312DB17C3EB621400212022284605
:1042400004F026F82122064600212846009604F0B4
:104250001FF83044201AD4E744B120680028D0DA8F
:104260002846FFF7DFFE2060CBE7FEE7284602B0D6
:10427000BDE87040FFF7D6BE1F85EB512DE9F04F2A
:10428000044687B002F09AFDA36801900BB10022AA
:104290001A621B220021204603F0FAFF3822002177
:1042A00004900646204603F0F3FF3C2205460490A6
:1042B0000021204603F0ECFF0021020704904FF09C
:1042C0001A02204648BF761903F0E2FF3822049014
:1042D000009000210746204603F0DAFF3C220490BC
:1042E00005460021204603F0D3FF430702D53B4695
:1042F0002B440093DFF8309204AA35214FF00008D8
:104300002046CDE90489FFF78BF9009A049B1344FA
:1043100003EB06080122844B039303A920462AF0ED
:1043200087FF054678B1039BA26812B10199494203
:1043300011627D4A934202D09845B8BF98464046E4
:1043400007B0BDE8F08F204606F0DCF881228146F8
:104350002946204603F09CFF0490C0B2012866D095
:10436000B9F1000F4DD0DFF8C8B1A3681B6853F84E
:10437000257059463846FEF7C1F800283ED197F817
:104380002B309A063AD469493846FEF7B7F8824688
:1043900050B9384606F06AF830B15146842203F02D
:1043A00077FF049080B2C8B912220021384603F08A
:1043B0006FFF0490C0B2072803D89323C340DB07E4
:1043C0000CD410220021384603F062FF824604908C
:1043D000002800F08C80DFF850A104E0FB696269DE
:1043E0009B1A03F1010A23220021384603F050FFF3
:1043F000039B04905044984210DA03930135A94579
:10440000B3D1039B484A934201D033448CE7A2685E
:10441000002A94D0019B5B42136290E73846232226
:10442000002103F035FF04900AEB0003E5E7B9F142
:10443000000F4CD0DFF8F8B0A3681B6853F8257064
:1044400059463846FEF75AF800283DD197F82B30E8
:10445000980639D435493846FEF750F8824650B9A7
:10446000384606F003F830B15146842203F010FFBD
:10447000049080B2C0B912220021384603F008FF30
:104480000490C0B2082804D840F24913C340D907A9
:104490000AD410220021384603F0FAFE8246049026
:1044A000A0B3DFF884A004E0E3697A699B1A03F102
:1044B000010A22220021384603F0EAFE039B049001
:1044C000504498420ADA03930135A945B4D1039BBD
:1044D000154A93429BD0009A134425E7384622227E
:1044E000002103F0D5FE04900AEB0003EBE707F18F
:1044F00014002DF0BBF9009B5146232200EB030A68
:10450000384603F0C5FE049082446CE707F11400BE
:104510002DF0ACF95146222200EB060A384603F092
:10452000B7FE04908244C4E7010000E001000600E9
:104530000100040070B50C46134682B022460021EB
:1045400005461C4603F0A4FE6FF0404290422FD077
:1045500000F0C042B2F1005F01D002B070BD20F0A7
:10456000C0446FF060439C42F7D0284605F07EFFC0
:1045700038B3FFF76FFCB4F1805FA4BF6FF07043F6
:104580001C1B134A04FB00F382FB0312DB17C3EB73
:10459000621400212222284603F07AFE23220646D6
:1045A00000212846009603F073FE3044201AD4E719
:1045B00044B120680028D0DA2846FFF75FFE20606B
:1045C000CBE7FEE7284602B0BDE87040FFF756BED5
:1045D0001F85EB512DE9F0478CB0044605F046FFEE
:1045E000002800F01E8194F82B1011F008070546F2
:1045F00040F0CC804FF0FF3304AA01212046049301
:10460000FFF798FF04AA064608212046FFF792FF0D
:1046100004AA814609212046FFF78CFF86423346D3
:10462000A8BF03469945C846B8BF9846994580F249
:104630003A8140450CBF092201223946204603F049
:1046400027FE089000F0C043B3F1005F00F0FB804C
:10465000002294F82B3062F3451384F82B3094F841
:104660002B1011F0040904F1140600F09B80304671
:104670002DF002F9074630462DF0F8F8804500F09D
:10468000CA80204605F0C8FE814607F0CBFCB0B1D9
:104690002046FEF71BFFA3691B1A0993E369034435
:1046A0000A93236A03440B9363691B1A0893B9F1B5
:1046B000000F69D0484608AA2146FFF7C1FA73687F
:1046C0000193B3680293F368039304A933680093DA
:1046D0002846FFF733FC002204A968462CF0FAFCB8
:1046E0008146002800F0AB80A3691F44013F276288
:1046F00081220021204603F0CBFD0890C0B20128A2
:1047000000F097806369984408F1FF33E3616A46DB
:1047100032212046FEF784FF22462B212846FEF751
:104720007FFF204605F078FE074607F07BFCA0B12E
:104730002046FEF7CBFEA3691B1A0993E3690344E5
:104740000A93236A03440B9363691B1A0893E7B126
:10475000384608AA2146FFF773FA94F82A3043F046
:10476000020304A9304684F82A3000222CF0B2FC5F
:10477000B9F1000F59D1002857D12046FEF782FE2B
:1047800001200CB0BDE8F087FEE7FEE704F1140657
:1047900030462DF06BF894F82B1011F00409804688
:1047A0007FF465AF4FF0FF3304AA02212046049343
:1047B000FFF714FD04AA07460A212046FFF70EFD65
:1047C0000B21824604AA2046FFF708FD87423B469C
:1047D000A8BF03469A455746B8BF1F469A45494663
:1047E00068DAB8420CBF0B220222204603F050FDCB
:1047F000089000F0C043B3F1005F3DD0002294F870
:104800002B3062F3041384F82B3030462DF02EF851
:1048100080457FF436AF30462DF02EF887427FF486
:1048200030AF00200CB0BDE8F087284603F03AF91D
:10483000A3E7E369A3EB08030133636167E7284655
:1048400003F030F950E720F0C0406FF06043984229
:104850003FF4FEAE95F82B3013F008017FF4F8AE6C
:104860000122284603F014FD6FF04043C21AB2FA49
:1048700082F208905209ECE620F0C0406FF06043ED
:104880009842BBD095F82B3013F00401B6D1022228
:10489000284603F0FDFC6FF04043C21AB2FA82F2E0
:1048A00008905209ABE708223946204603F0F0FC95
:1048B0000890C7E60A22204603F0EAFC089098E731
:1048C00090B130B583B00D46002301AA10210446F3
:1048D00003F0F6FC012808D020B900222946204622
:1048E00005F066FA03B030BDFEE7019B9D42F4D1AE
:1048F000F8E700BF90B130B583B00D46002301AAA0
:104900001121044603F0DCFC012808D020B9002264
:104910002946204605F054FA03B030BDFEE7019B5E
:104920009D42F4D1F8E700BF70B5012982B00A4674
:10493000054604D0A1F10803012B00D9FEE70021B0
:10494000284603F0A5FC6FF04042904206D000F0EC
:10495000C042B2F1005F07D002B070BD284602B07D
:10496000BDE87040FFF78ABC20F0C0446FF06043A0
:104970009C42F1D0284605F079FDF0B1FFF76AFAC4
:10498000B4F1805FA4BF6FF070431C1B0B4A04FBA3
:1049900000F382FB0312DB17C3EB62140021222217
:1049A000284603F075FC232206460021284600967F
:1049B00003F06EFC3044201ACEE7FEE71F85EB5172
:1049C00070B5022982B00A46054604D0A1F10A0357
:1049D000012B00D9FEE70021284603F059FC6FF0B7
:1049E0004042904206D000F0C042B2F1005F07D0D2
:1049F00002B070BD284602B0BDE87040FFF712BBA0
:104A000020F0C0446FF060439C42F1D0284605F08E
:104A10002DFDF0B1FFF758FAB4F1805FA4BF6FF03D
:104A200070431C1B0B4A04FB00F382FB0312DB17D1
:104A3000C3EB621400212022284603F029FC212226
:104A4000064600212846009603F022FC3044201A36
:104A5000CEE7FEE71F85EB5138B190F82B3003F01D
:104A60000C030C2B02D0FFF7B5BDFEE7002070470A
:104A700008B370B582B00D461646002301AA012185
:104A8000044603F01DFC012816D020B90022294657
:104A9000204605F075F9002301AA0221204603F003
:104AA0000FFC01280CD020B900223146204605F029
:104AB00077F902B070BDFEE7019B9D42E6D1EAE7BF
:104AC000019B9E42F0D1F4E790B130B583B00D4622
:104AD000002301AA0121044603F0F2FB012808D0BB
:104AE00020B900222946204605F04AF903B030BD1E
:104AF000FEE7019B9D42F4D1F8E700BF90B130B5CD
:104B000083B00D46002301AA0221044603F0D8FB1E
:104B1000012808D020B900222946204605F040F996
:104B200003B030BDFEE7019B9D42F4D1F8E700BF22
:104B3000E0B110B5044689B2002205F091F994F86D
:104B40002A3043F0010384F82A30204605F05CFC4B
:104B500090F82A2042F0040280F82A2005F05CFC3C
:104B6000BDE810400022392107F028BAFEE700BF57
:104B700030B50C4983B00546FDF7C0FC10B10020EC
:104B800003B030BD0446284605F070FC0028F6D07E
:104B90008422214603F07CFB80B2003818BF01203C
:104BA00003B030BD0100060090F82A2042F0010257
:104BB00008B580F82A2005F027FC90F82A2042F05A
:104BC000040280F82A2005F027FCBDE808400022F6
:104BD000392107F0F3B900BF70B5044682B015461D
:104BE00000221E4605F0F4F8ECB1002301AA1021C2
:104BF000204603F065FB012816D020B90022294683
:104C0000204605F0D5F8002301AA1121204603F023
:104C100057FB01280CD020B900223146204605F070
:104C2000CFF802B070BDFEE7019B9D42E6D1EAE7F6
:104C3000019B9E42F0D1F4E758B110B4D0E905428F
:104C4000D0E90730C1E90042C8605DF8044B8B60D1
:104C50007047FEE728B3F0B583B0044605F006FCC4
:104C60000546F8B143696469E41A02F0A7F81A220C
:104C700004440021284603F00BFB3822064601902D
:104C80000021284603F004FB3C2207460021284669
:104C9000019703F0FDFA430748BFF619A01B03B0C4
:104CA000F0BDFEE7606903B0F0BD00BF28B3F0B50A
:104CB00083B0044605F0DAFB0546F8B18369A469C0
:104CC000E41A02F081F8182204440021284603F077
:104CD000DFFA3822064601900021284603F0D8FA70
:104CE0003C22074600212846019703F0D1FA8307AA
:104CF00048BFF619A01B03B0F0BDFEE7A06903B0E2
:104D0000F0BD00BF70B32DE9F04182B0044605F05C
:104D1000ADFB054638B3A36982699F1A02F054F8C7
:104D2000182207440021284603F0B2FA382206462A
:104D300001900021284603F0ABFA3C228046002176
:104D40002846CDF8048003F0A3FA830748BF464401
:104D50000190BE1B04F114002CF08EFD304402B013
:104D6000BDE8F081FEE7A669F4E700BF00B51122B7
:104D700083B0002103F08CFA03B05DF804FB00BFA0
:104D800010B114302CF072BDFEE700BF10B114302A
:104D90002CF072BDFEE700BF08B1FFF75BB8FEE77D
:104DA00008B1FFF791B8FEE708B1FFF7C7B8FEE713
:104DB00000B59FED077B83B06A4635218DED007B02
:104DC000FEF72EFC009803B05DF804FBAFF3008003
:104DD00000000000010000E000B59FED077B83B0FC
:104DE0006A4635218DED007BFEF71AFC019803B071
:104DF0005DF804FBAFF30080010000E0000000005C
:104E000000B370B5012282B00021044603F040FADD
:104E10000822054600212046019503F039FA0922AF
:104E2000064600212046019603F032FA6FF0404218
:104E3000954208D0964206D0801AB0FA80F0400918
:104E400002B070BDFEE7012002B070BD00B370B5C6
:104E5000022282B00021044603F01AFA0A22054613
:104E600000212046019503F013FA0B22064600218B
:104E70002046019603F00CFA6FF04042954208D0AC
:104E8000964206D0801AB0FA80F0400902B070BD98
:104E9000FEE7012002B070BD002839D0F0B5012234
:104EA00083B00021044603F0F3F9082205460021EF
:104EB0002046019503F0ECF90922019006460021F5
:104EC000204603F0E5F96FF04047BD42019020D045
:104ED000BE421ED0B8421CD002220021204603F060
:104EE000D7F90A22054600210190204603F0D0F9A7
:104EF0000B22019006460021204603F0C9F9BD426D
:104F0000019006D0BE4204D0B84202D0002030E06A
:104F1000FEE7204605F0AAFAA8B1428D22F44062CD
:104F200022F0010242F00102428505F06DFA90F88C
:104F30002A2042F0040280F82A2005F06DFA0022AF
:104F4000392107F03BF894F82A3043F0010384F844
:104F50002A30204605F058FA90F82A2042F0040240
:104F600080F82A2005F058FA0022392107F026F8A7
:104F7000012003B0F0BD00BF2DE9F04F97B08B4684
:104F800011909246129305F0BDFA0B90002800F0A4
:104F90004C8100230693D946119B069A9B681B6897
:104FA00053F822300593129B3BB105984FF48021B2
:104FB000FDF79CFA002840F03181059A53694B4473
:104FC0005361936953449361D3694B44D361136A2A
:104FD00053441362104605F095FA0C90002800F037
:104FE0001D8100230793CB46059B079A9B681B688E
:104FF00053F822200D92D2E90540D36904EB0B054A
:1050000000EB0A0403EB0B00136AD0615344C2E9BE
:1050100005541362104605F075FA0E90002800F052
:10502000F5800023D9460893D3460D9B089A9B68C8
:105030001B6853F822200F9253694B4453619369C4
:105040005B449361D3694B44D361136A5B4413623D
:10505000104605F057FA1090002800F0CE8000238B
:105060000993DA460F9B099A9B681B6853F8222024
:10507000039253694B445361936953449361D369D9
:105080004B44D361136A53441362104605F03AFA55
:105090000490002800F0A980002357460093CA46D8
:1050A000039B009A9B681B6853F82290D9F8143030
:1050B0005344C9F81430D9F818303B44C9F81830B3
:1050C000D9F81C305344C9F81C30D9F820303B447F
:1050D000C9F82030484605F015FA019000287BD029
:1050E0003B464FF000084F469946BB681B6853F893
:1050F0002840636953446361A3694B44A361E36936
:105100005344E361236A4B442362204605F0FAF9D5
:10511000029000285AD0CDE9137400230A93CDF8E9
:105120005480149B0A9A9B681B6853F82240636959
:1051300053446361A3694B44A361E3695344E3614E
:10514000236A4B442362204605F0DCF9834600289D
:1051500033D00026A3681B6853F826506B6953446C
:105160006B61AB694B44AB61EB695344EB612B6AF8
:105170004B442B62284605F0C5F90746D0B14FF0E5
:105180000008AB681B6853F8280043695344436127
:1051900083694B448361C3695344C361036A4B44CD
:1051A000036208F1010800234A465146FFF7E4FE76
:1051B0004745E6D10136B345CCD10A9B029A01336B
:1051C0009A420A93ADD1139FDDF85480019B08F1F8
:1051D0000108434589D14F46009B049A01339A4206
:1051E00000937FF45DAFD146BA46099B109A013314
:1051F0009A4209937FF436AFD346089B0E9A013347
:105200009A4208937FF411AFDA46CB46079B0C9A7B
:1052100001339A4207937FF4E7AED946069B0B9A77
:1052200001339A4206937FF4B7AE17B0BDE8F08F12
:105230002DE9F047D0F804808CB004460D461646A0
:10524000B8F1000F3ED04FF48021FDF74FF9002850
:1052500000F0E580D8F81430D8F8187005EB030991
:1052600037441A220021404603F012F8382205463E
:1052700008900021404603F00BF83C2206460890B7
:105280000021404603F004F80021420708904FF047
:105290001802404648BFAD1902F0FAFF3822064610
:1052A00008900021404602F0F3FF4D4408908146EB
:1052B0003C220021404602F0EBFF830748BF4E44EA
:1052C00008903E446369ED1AA369F61A55EA06038D
:1052D00065D0204605F0A0F8074606F0A3FE00289A
:1052E00060D16069A169E269236A0090019102922C
:1052F0000393B8F1000F6CD004A94046FEF71EFEE0
:1053000004A9002268462BF0E5FE8246002800F042
:105310009680D4E90501D4E90723284431442A447E
:1053200033446061A161E2612362204605F0EAF83E
:105330008146C0B10027A268116851F82700416971
:1053400029444161816931448161C1692944C16154
:10535000016A314401620023324601372946FFF7D2
:105360000BFEB945E7D1B8F1000F34D022462B210E
:105370004046FEF755F9204605F04EF8054606F082
:1053800051FE80BB002204A904F114002BF0A2FE00
:10539000BAF1000F00D110B1404602F083FB0CB00F
:1053A000BDE8F0872046FEF791F8A3691B1A099320
:1053B000E36903440A93236A03440B9363691B1A4A
:1053C00008932FB1384608AA2146FEF739FC88E732
:1053D000FEE7C246A1E7204605F01EF8054606F0A6
:1053E00021FE0028DBD02046FEF770F8A3691B1AC7
:1053F0000993E36903440A93236A03440B936369A3
:105400001B1A089355B108AA28462146FEF718FC36
:10541000B8F1000FB6D10CB0BDE8F087FEE740460A
:10542000D8F8147001F0CAFC381A00EB05094046A0
:10543000D8F8185001F0C8FC281A871911E740461F
:1054400002F030FB65E700BF2DE9F04F87B004465E
:1054500005F00CF8102200210546204602F018FF46
:1054600011220590064600218346204602F010FFD7
:1054700080460590002D00F0D18082462846FEF738
:10548000E9FC07462846FEF71FFD06F0C043B3F1CE
:10549000005F009000F08E8008F0C043B3F1005F21
:1054A00065D00C220021204602F0F2FE0D2205906C
:1054B00081460021204602F0EBFE06460590002CB6
:1054C0003CD004F11408CDE9019040462CF0CEF90F
:1054D00084464046E0462CF0CFF9039009F0C040E6
:1054E000B0F1005FDDE9012100F0A08006F0C043CB
:1054F000B3F1005F00F0C68093448A441222002179
:10550000204602F0C5FE03462846DDB2012D4FF0CD
:1055100081024FF0000138BF0125059302F0B8FE6B
:105520000590C0B2012800F09780023D072D16D8E3
:10553000DFE805F0CA6D67BF610B05D5FEE70128FE
:1055400000F0F380A7EB0807BB44039B009A03EB32
:10555000D37302EBD2795B10C3EB69039A445246D2
:105560005946204607B0BDE8F04FFFF761BE28F06E
:10557000C0486FF06043984593D00222002128462E
:1055800002F086FE6FF040439842059000F0F580EF
:10559000B8F1805FC0F2F780009A6FF07043A3EB20
:1055A000080302FB03F37D4A82FB0312DB17C3EB04
:1055B000621A76E726F0C0466FF060439E423FF4E1
:1055C0006BAF01220021284602F062FE6FF04043DB
:1055D0009842059000F0D480B6F1805FA4BF6FF0D0
:1055E00070439E1B6D4B07FB06F683FB063BF617CD
:1055F000C6EB6B1B50E7012800F09C80A7EB080767
:10560000BB44009B039AA3EB0209CA44A7E7012805
:1056100000F08680A7EB0807BB44A0E702463146AE
:10562000204607B0BDE8F04FFFF702BE29F0C043A7
:105630006FF0604083423FF459AFB3F1805FA4BF85
:105640006FF07042D31A554A08FB03F382FB030242
:10565000DB17C3EB621249E76B1E072B48D801A288
:1056600052F823F021570008F15600085F55000852
:1056700035570008F1560008035600082B5700085C
:105680004B55000826F0C0466FF060439E423FF441
:1056900033AFB6F1805FA4BF6FF070439E1B039BD6
:1056A0003E4903FB06F681FB0631F617C6EB611196
:1056B00022E7012843D008EBD87307EBD7775B10BC
:1056C000C3EB67039B449CE7012842D008EBD873E7
:1056D00007EBD7775B10C3EB67039B443FE708EB0F
:1056E000D87307EBD7775B10C3EB67039B442CE7BA
:1056F000023D072D3FF633AF01A353F825F000BF5D
:105700005357000821570008035600083F57000868
:10571000355700084B5500082B57000867570008FD
:10572000A7EB0807A7EB0B0B19E7A7EB0807A7EBFD
:105730000B0B0AE7A7EB0807A7EB0B0B61E708EBDE
:10574000D87307EBD7775B10C3EB6703A3EB0B0BA7
:1057500057E708EBD87307EBD7775B10C3EB67030A
:10576000A3EB0B0BFBE608EBD87307EBD7775B10CB
:10577000C3EB6703A3EB0B0BE7E64FF0000A90E6E1
:105780004FF0000B88E6009B08FB03F8034B83FBFC
:10579000083A4FEAE878C8EB6A1A82E61F85EB51AF
:1057A00070B582B0054604F0ADFE064648B100244F
:1057B000AB681B6853F824000134FFF7F1FFA642E1
:1057C000F6D195F82A30DA0718D595F82B2002F093
:1057D0000C026FF300030C2A85F82A3002D0284609
:1057E000FEF7F8FE17492846FCF788FE044648B144
:1057F0002846FFF729FE9EB995F82A309B0713D457
:1058000002B070BD284604F031FE0028F0D084229A
:10581000214602F03DFD80B20028E9D0002EEBD0F9
:10582000284629F02BFDE7E795F82A3000216FF391
:105830004103284685F82A3002B0BDE8704002F0E6
:105840006FB900BF010006002DE9F04F87B001924B
:10585000002800F09480DFF814A61E469AF8643001
:105860000C460546002B00F08C80002C00F0F580E3
:10587000284604F0FBFD8246002800F081801A22B1
:10588000002102F005FD3822059083460021504694
:1058900002F0FEFC3C22804605900021504602F0BA
:1058A000F7FC1822059000214007504648BFC3442A
:1058B00002F0EEFC38220590029000210746504687
:1058C00002F0E6FC0021059080463C22504602F0A2
:1058D000DFFC8107059002D53B46434402931A2220
:1058E0000021204602F0D4FC382205908146002198
:1058F000204602F0CDFC3C22804605900021204647
:1059000002F0C6FC0021420705904FF01802204625
:1059100048BFC14402F0BCFC3822059080460021FB
:10592000204602F0B5FC3C22059003900021204661
:1059300002F0AEFC830748BF039B059048BF984424
:10594000019B002B00F091805F1E142F00F28782D4
:10595000DFE817F0950095012F018A01E301CB01E3
:10596000C401A6016C0263024B02390231021A0221
:10597000090200026B01590151013A017901FEE768
:10598000FEE701238AF8643004F03EFDDFF8E0B45E
:105990000746A14697F82A3013F004034FD097F832
:1059A0002A306FF38203384687F82A3004F0AAFDC4
:1059B000044658B14FF00008BB681B6853F8280034
:1059C00008F10108FFF7ECFE4445F5D197F82A30BD
:1059D000DA0723D56FF3000387F82A3097F82B30C6
:1059E00003F00C030C2B02D03846FEF7F3FD5946AA
:1059F0003846FCF783FD804650B9384604F036FD42
:105A000030B14146842202F043FC059080B210B9C7
:105A10003846FFF719FD74B997F82A309C07BBD5B3
:105A200097F82A306FF3410387F82A30002138466F
:105A300002F076F8AEE7384629F020FCECE798460D
:105A4000384604F0E9FC4C464246462106F0B6FAD8
:105A50008AF86480002C7FF40BAF284604F006FD22
:105A6000044600287FF404AFFEE719468122204651
:105A700002F00EFC0590C0B2012800F09A8006F0FA
:105A8000C043B3F1005F7AD0109B03F0C043B3F181
:105A9000005F59D081220021504602F0F9FB0590A9
:105AA000C0B20128636943D01E44DAF8143050466E
:105AB000F61A01F095F90644A6EB0B06B144109BCB
:105AC000A4691C44DAF818305046E41A01F082F94F
:105AD000029B2044C31A002201212846984404F066
